{
  "abi": [
    {
      "inputs": [],
      "stateMutability": "nonpayable",
      "type": "constructor"
    },
    {
      "inputs": [],
      "name": "AI",
      "type": "error"
    },
    {
      "inputs": [],
      "name": "AS",
      "type": "error"
    },
    {
      "inputs": [],
      "name": "F0",
      "type": "error"
    },
    {
      "inputs": [],
      "name": "F1",
      "type": "error"
    },
    {
      "inputs": [],
      "name": "I",
      "type": "error"
    },
    {
      "inputs": [],
      "name": "IIA",
      "type": "error"
    },
    {
      "inputs": [],
      "name": "L",
      "type": "error"
    },
    {
      "inputs": [],
      "name": "LO",
      "type": "error"
    },
    {
      "inputs": [],
      "name": "LOK",
      "type": "error"
    },
    {
      "inputs": [],
      "name": "M0",
      "type": "error"
    },
    {
      "inputs": [],
      "name": "M1",
      "type": "error"
    },
    {
      "inputs": [],
      "name": "NP",
      "type": "error"
    },
    {
      "inputs": [],
      "name": "OLD",
      "type": "error"
    },
    {
      "inputs": [],
      "name": "R",
      "type": "error"
    },
    {
      "inputs": [],
      "name": "T",
      "type": "error"
    },
    {
      "inputs": [],
      "name": "TF",
      "type": "error"
    },
    {
      "inputs": [],
      "name": "TLM",
      "type": "error"
    },
    {
      "inputs": [],
      "name": "TLU",
      "type": "error"
    },
    {
      "inputs": [],
      "name": "TUM",
      "type": "error"
    },
    {
      "anonymous": false,
      "inputs": [
        {
          "indexed": true,
          "internalType": "address",
          "name": "owner",
          "type": "address"
        },
        {
          "indexed": true,
          "internalType": "int24",
          "name": "tickLower",
          "type": "int24"
        },
        {
          "indexed": true,
          "internalType": "int24",
          "name": "tickUpper",
          "type": "int24"
        },
        {
          "indexed": false,
          "internalType": "uint128",
          "name": "amount",
          "type": "uint128"
        },
        {
          "indexed": false,
          "internalType": "uint256",
          "name": "amount0",
          "type": "uint256"
        },
        {
          "indexed": false,
          "internalType": "uint256",
          "name": "amount1",
          "type": "uint256"
        }
      ],
      "name": "Burn",
      "type": "event"
    },
    {
      "anonymous": false,
      "inputs": [
        {
          "indexed": true,
          "internalType": "address",
          "name": "owner",
          "type": "address"
        },
        {
          "indexed": false,
          "internalType": "address",
          "name": "recipient",
          "type": "address"
        },
        {
          "indexed": true,
          "internalType": "int24",
          "name": "tickLower",
          "type": "int24"
        },
        {
          "indexed": true,
          "internalType": "int24",
          "name": "tickUpper",
          "type": "int24"
        },
        {
          "indexed": false,
          "internalType": "uint128",
          "name": "amount0",
          "type": "uint128"
        },
        {
          "indexed": false,
          "internalType": "uint128",
          "name": "amount1",
          "type": "uint128"
        }
      ],
      "name": "Collect",
      "type": "event"
    },
    {
      "anonymous": false,
      "inputs": [
        {
          "indexed": true,
          "internalType": "address",
          "name": "sender",
          "type": "address"
        },
        {
          "indexed": true,
          "internalType": "address",
          "name": "recipient",
          "type": "address"
        },
        {
          "indexed": false,
          "internalType": "uint128",
          "name": "amount0",
          "type": "uint128"
        },
        {
          "indexed": false,
          "internalType": "uint128",
          "name": "amount1",
          "type": "uint128"
        }
      ],
      "name": "CollectProtocol",
      "type": "event"
    },
    {
      "anonymous": false,
      "inputs": [
        {
          "indexed": true,
          "internalType": "address",
          "name": "sender",
          "type": "address"
        },
        {
          "indexed": true,
          "internalType": "address",
          "name": "recipient",
          "type": "address"
        },
        {
          "indexed": false,
          "internalType": "uint256",
          "name": "amount0",
          "type": "uint256"
        },
        {
          "indexed": false,
          "internalType": "uint256",
          "name": "amount1",
          "type": "uint256"
        },
        {
          "indexed": false,
          "internalType": "uint256",
          "name": "paid0",
          "type": "uint256"
        },
        {
          "indexed": false,
          "internalType": "uint256",
          "name": "paid1",
          "type": "uint256"
        }
      ],
      "name": "Flash",
      "type": "event"
    },
    {
      "anonymous": false,
      "inputs": [
        {
          "indexed": false,
          "internalType": "uint16",
          "name": "observationCardinalityNextOld",
          "type": "uint16"
        },
        {
          "indexed": false,
          "internalType": "uint16",
          "name": "observationCardinalityNextNew",
          "type": "uint16"
        }
      ],
      "name": "IncreaseObservationCardinalityNext",
      "type": "event"
    },
    {
      "anonymous": false,
      "inputs": [
        {
          "indexed": false,
          "internalType": "uint160",
          "name": "sqrtPriceX96",
          "type": "uint160"
        },
        {
          "indexed": false,
          "internalType": "int24",
          "name": "tick",
          "type": "int24"
        }
      ],
      "name": "Initialize",
      "type": "event"
    },
    {
      "anonymous": false,
      "inputs": [
        {
          "indexed": false,
          "internalType": "address",
          "name": "sender",
          "type": "address"
        },
        {
          "indexed": true,
          "internalType": "address",
          "name": "owner",
          "type": "address"
        },
        {
          "indexed": true,
          "internalType": "int24",
          "name": "tickLower",
          "type": "int24"
        },
        {
          "indexed": true,
          "internalType": "int24",
          "name": "tickUpper",
          "type": "int24"
        },
        {
          "indexed": false,
          "internalType": "uint128",
          "name": "amount",
          "type": "uint128"
        },
        {
          "indexed": false,
          "internalType": "uint256",
          "name": "amount0",
          "type": "uint256"
        },
        {
          "indexed": false,
          "internalType": "uint256",
          "name": "amount1",
          "type": "uint256"
        }
      ],
      "name": "Mint",
      "type": "event"
    },
    {
      "anonymous": false,
      "inputs": [
        {
          "indexed": false,
          "internalType": "uint8",
          "name": "feeProtocol0Old",
          "type": "uint8"
        },
        {
          "indexed": false,
          "internalType": "uint8",
          "name": "feeProtocol1Old",
          "type": "uint8"
        },
        {
          "indexed": false,
          "internalType": "uint8",
          "name": "feeProtocol0New",
          "type": "uint8"
        },
        {
          "indexed": false,
          "internalType": "uint8",
          "name": "feeProtocol1New",
          "type": "uint8"
        }
      ],
      "name": "SetFeeProtocol",
      "type": "event"
    },
    {
      "anonymous": false,
      "inputs": [
        {
          "indexed": true,
          "internalType": "address",
          "name": "sender",
          "type": "address"
        },
        {
          "indexed": true,
          "internalType": "address",
          "name": "recipient",
          "type": "address"
        },
        {
          "indexed": false,
          "internalType": "int256",
          "name": "amount0",
          "type": "int256"
        },
        {
          "indexed": false,
          "internalType": "int256",
          "name": "amount1",
          "type": "int256"
        },
        {
          "indexed": false,
          "internalType": "uint160",
          "name": "sqrtPriceX96",
          "type": "uint160"
        },
        {
          "indexed": false,
          "internalType": "uint128",
          "name": "liquidity",
          "type": "uint128"
        },
        {
          "indexed": false,
          "internalType": "int24",
          "name": "tick",
          "type": "int24"
        }
      ],
      "name": "Swap",
      "type": "event"
    },
    {
      "inputs": [
        {
          "internalType": "int24",
          "name": "tickLower",
          "type": "int24"
        },
        {
          "internalType": "int24",
          "name": "tickUpper",
          "type": "int24"
        },
        {
          "internalType": "uint128",
          "name": "amount",
          "type": "uint128"
        }
      ],
      "name": "burn",
      "outputs": [
        {
          "internalType": "uint256",
          "name": "amount0",
          "type": "uint256"
        },
        {
          "internalType": "uint256",
          "name": "amount1",
          "type": "uint256"
        }
      ],
      "stateMutability": "nonpayable",
      "type": "function"
    },
    {
      "inputs": [
        {
          "internalType": "address",
          "name": "recipient",
          "type": "address"
        },
        {
          "internalType": "int24",
          "name": "tickLower",
          "type": "int24"
        },
        {
          "internalType": "int24",
          "name": "tickUpper",
          "type": "int24"
        },
        {
          "internalType": "uint128",
          "name": "amount0Requested",
          "type": "uint128"
        },
        {
          "internalType": "uint128",
          "name": "amount1Requested",
          "type": "uint128"
        }
      ],
      "name": "collect",
      "outputs": [
        {
          "internalType": "uint128",
          "name": "amount0",
          "type": "uint128"
        },
        {
          "internalType": "uint128",
          "name": "amount1",
          "type": "uint128"
        }
      ],
      "stateMutability": "nonpayable",
      "type": "function"
    },
    {
      "inputs": [
        {
          "internalType": "address",
          "name": "recipient",
          "type": "address"
        },
        {
          "internalType": "uint128",
          "name": "amount0Requested",
          "type": "uint128"
        },
        {
          "internalType": "uint128",
          "name": "amount1Requested",
          "type": "uint128"
        }
      ],
      "name": "collectProtocol",
      "outputs": [
        {
          "internalType": "uint128",
          "name": "amount0",
          "type": "uint128"
        },
        {
          "internalType": "uint128",
          "name": "amount1",
          "type": "uint128"
        }
      ],
      "stateMutability": "nonpayable",
      "type": "function"
    },
    {
      "inputs": [],
      "name": "factory",
      "outputs": [
        {
          "internalType": "address",
          "name": "",
          "type": "address"
        }
      ],
      "stateMutability": "view",
      "type": "function"
    },
    {
      "inputs": [],
      "name": "fee",
      "outputs": [
        {
          "internalType": "uint24",
          "name": "",
          "type": "uint24"
        }
      ],
      "stateMutability": "view",
      "type": "function"
    },
    {
      "inputs": [],
      "name": "feeGrowthGlobal0X128",
      "outputs": [
        {
          "internalType": "uint256",
          "name": "",
          "type": "uint256"
        }
      ],
      "stateMutability": "view",
      "type": "function"
    },
    {
      "inputs": [],
      "name": "feeGrowthGlobal1X128",
      "outputs": [
        {
          "internalType": "uint256",
          "name": "",
          "type": "uint256"
        }
      ],
      "stateMutability": "view",
      "type": "function"
    },
    {
      "inputs": [
        {
          "internalType": "address",
          "name": "recipient",
          "type": "address"
        },
        {
          "internalType": "uint256",
          "name": "amount0",
          "type": "uint256"
        },
        {
          "internalType": "uint256",
          "name": "amount1",
          "type": "uint256"
        },
        {
          "internalType": "bytes",
          "name": "data",
          "type": "bytes"
        }
      ],
      "name": "flash",
      "outputs": [],
      "stateMutability": "nonpayable",
      "type": "function"
    },
    {
      "inputs": [
        {
          "internalType": "uint16",
          "name": "observationCardinalityNext",
          "type": "uint16"
        }
      ],
      "name": "increaseObservationCardinalityNext",
      "outputs": [],
      "stateMutability": "nonpayable",
      "type": "function"
    },
    {
      "inputs": [
        {
          "internalType": "uint160",
          "name": "sqrtPriceX96",
          "type": "uint160"
        }
      ],
      "name": "initialize",
      "outputs": [],
      "stateMutability": "nonpayable",
      "type": "function"
    },
    {
      "inputs": [],
      "name": "liquidity",
      "outputs": [
        {
          "internalType": "uint128",
          "name": "",
          "type": "uint128"
        }
      ],
      "stateMutability": "view",
      "type": "function"
    },
    {
      "inputs": [],
      "name": "maxLiquidityPerTick",
      "outputs": [
        {
          "internalType": "uint128",
          "name": "",
          "type": "uint128"
        }
      ],
      "stateMutability": "view",
      "type": "function"
    },
    {
      "inputs": [
        {
          "internalType": "address",
          "name": "recipient",
          "type": "address"
        },
        {
          "internalType": "int24",
          "name": "tickLower",
          "type": "int24"
        },
        {
          "internalType": "int24",
          "name": "tickUpper",
          "type": "int24"
        },
        {
          "internalType": "uint128",
          "name": "amount",
          "type": "uint128"
        },
        {
          "internalType": "bytes",
          "name": "data",
          "type": "bytes"
        }
      ],
      "name": "mint",
      "outputs": [
        {
          "internalType": "uint256",
          "name": "amount0",
          "type": "uint256"
        },
        {
          "internalType": "uint256",
          "name": "amount1",
          "type": "uint256"
        }
      ],
      "stateMutability": "nonpayable",
      "type": "function"
    },
    {
      "inputs": [
        {
          "internalType": "uint256",
          "name": "",
          "type": "uint256"
        }
      ],
      "name": "observations",
      "outputs": [
        {
          "internalType": "uint32",
          "name": "blockTimestamp",
          "type": "uint32"
        },
        {
          "internalType": "int56",
          "name": "tickCumulative",
          "type": "int56"
        },
        {
          "internalType": "uint160",
          "name": "secondsPerLiquidityCumulativeX128",
          "type": "uint160"
        },
        {
          "internalType": "bool",
          "name": "initialized",
          "type": "bool"
        }
      ],
      "stateMutability": "view",
      "type": "function"
    },
    {
      "inputs": [
        {
          "internalType": "uint32[]",
          "name": "secondsAgos",
          "type": "uint32[]"
        }
      ],
      "name": "observe",
      "outputs": [
        {
          "internalType": "int56[]",
          "name": "tickCumulatives",
          "type": "int56[]"
        },
        {
          "internalType": "uint160[]",
          "name": "secondsPerLiquidityCumulativeX128s",
          "type": "uint160[]"
        }
      ],
      "stateMutability": "view",
      "type": "function"
    },
    {
      "inputs": [
        {
          "internalType": "bytes32",
          "name": "",
          "type": "bytes32"
        }
      ],
      "name": "positions",
      "outputs": [
        {
          "internalType": "uint128",
          "name": "liquidity",
          "type": "uint128"
        },
        {
          "internalType": "uint256",
          "name": "feeGrowthInside0LastX128",
          "type": "uint256"
        },
        {
          "internalType": "uint256",
          "name": "feeGrowthInside1LastX128",
          "type": "uint256"
        },
        {
          "internalType": "uint128",
          "name": "tokensOwed0",
          "type": "uint128"
        },
        {
          "internalType": "uint128",
          "name": "tokensOwed1",
          "type": "uint128"
        }
      ],
      "stateMutability": "view",
      "type": "function"
    },
    {
      "inputs": [],
      "name": "protocolFees",
      "outputs": [
        {
          "internalType": "uint128",
          "name": "token0",
          "type": "uint128"
        },
        {
          "internalType": "uint128",
          "name": "token1",
          "type": "uint128"
        }
      ],
      "stateMutability": "view",
      "type": "function"
    },
    {
      "inputs": [
        {
          "internalType": "uint8",
          "name": "feeProtocol0",
          "type": "uint8"
        },
        {
          "internalType": "uint8",
          "name": "feeProtocol1",
          "type": "uint8"
        }
      ],
      "name": "setFeeProtocol",
      "outputs": [],
      "stateMutability": "nonpayable",
      "type": "function"
    },
    {
      "inputs": [],
      "name": "slot0",
      "outputs": [
        {
          "internalType": "uint160",
          "name": "sqrtPriceX96",
          "type": "uint160"
        },
        {
          "internalType": "int24",
          "name": "tick",
          "type": "int24"
        },
        {
          "internalType": "uint16",
          "name": "observationIndex",
          "type": "uint16"
        },
        {
          "internalType": "uint16",
          "name": "observationCardinality",
          "type": "uint16"
        },
        {
          "internalType": "uint16",
          "name": "observationCardinalityNext",
          "type": "uint16"
        },
        {
          "internalType": "uint8",
          "name": "feeProtocol",
          "type": "uint8"
        },
        {
          "internalType": "bool",
          "name": "unlocked",
          "type": "bool"
        }
      ],
      "stateMutability": "view",
      "type": "function"
    },
    {
      "inputs": [
        {
          "internalType": "int24",
          "name": "tickLower",
          "type": "int24"
        },
        {
          "internalType": "int24",
          "name": "tickUpper",
          "type": "int24"
        }
      ],
      "name": "snapshotCumulativesInside",
      "outputs": [
        {
          "internalType": "int56",
          "name": "tickCumulativeInside",
          "type": "int56"
        },
        {
          "internalType": "uint160",
          "name": "secondsPerLiquidityInsideX128",
          "type": "uint160"
        },
        {
          "internalType": "uint32",
          "name": "secondsInside",
          "type": "uint32"
        }
      ],
      "stateMutability": "view",
      "type": "function"
    },
    {
      "inputs": [
        {
          "internalType": "address",
          "name": "recipient",
          "type": "address"
        },
        {
          "internalType": "bool",
          "name": "zeroForOne",
          "type": "bool"
        },
        {
          "internalType": "int256",
          "name": "amountSpecified",
          "type": "int256"
        },
        {
          "internalType": "uint160",
          "name": "sqrtPriceLimitX96",
          "type": "uint160"
        },
        {
          "internalType": "bytes",
          "name": "data",
          "type": "bytes"
        }
      ],
      "name": "swap",
      "outputs": [
        {
          "internalType": "int256",
          "name": "amount0",
          "type": "int256"
        },
        {
          "internalType": "int256",
          "name": "amount1",
          "type": "int256"
        }
      ],
      "stateMutability": "nonpayable",
      "type": "function"
    },
    {
      "inputs": [
        {
          "internalType": "int16",
          "name": "",
          "type": "int16"
        }
      ],
      "name": "tickBitmap",
      "outputs": [
        {
          "internalType": "uint256",
          "name": "",
          "type": "uint256"
        }
      ],
      "stateMutability": "view",
      "type": "function"
    },
    {
      "inputs": [],
      "name": "tickSpacing",
      "outputs": [
        {
          "internalType": "int24",
          "name": "",
          "type": "int24"
        }
      ],
      "stateMutability": "view",
      "type": "function"
    },
    {
      "inputs": [
        {
          "internalType": "int24",
          "name": "",
          "type": "int24"
        }
      ],
      "name": "ticks",
      "outputs": [
        {
          "internalType": "uint128",
          "name": "liquidityGross",
          "type": "uint128"
        },
        {
          "internalType": "int128",
          "name": "liquidityNet",
          "type": "int128"
        },
        {
          "internalType": "uint256",
          "name": "feeGrowthOutside0X128",
          "type": "uint256"
        },
        {
          "internalType": "uint256",
          "name": "feeGrowthOutside1X128",
          "type": "uint256"
        },
        {
          "internalType": "int56",
          "name": "tickCumulativeOutside",
          "type": "int56"
        },
        {
          "internalType": "uint160",
          "name": "secondsPerLiquidityOutsideX128",
          "type": "uint160"
        },
        {
          "internalType": "uint32",
          "name": "secondsOutside",
          "type": "uint32"
        },
        {
          "internalType": "bool",
          "name": "initialized",
          "type": "bool"
        }
      ],
      "stateMutability": "view",
      "type": "function"
    },
    {
      "inputs": [],
      "name": "token0",
      "outputs": [
        {
          "internalType": "address",
          "name": "",
          "type": "address"
        }
      ],
      "stateMutability": "view",
      "type": "function"
    },
    {
      "inputs": [],
      "name": "token1",
      "outputs": [
        {
          "internalType": "address",
          "name": "",
          "type": "address"
        }
      ],
      "stateMutability": "view",
      "type": "function"
    }
  ],
  "bytecode": {
    "object": "0x6101606040523480156200001257600080fd5b503060805260408051630890357360e41b81529051600091339163890357309160048082019260a0929091908290030181865afa15801562000058573d6000803e3d6000fd5b505050506040513d601f19601f820116820180604052508101906200007e919062000186565b62ffffff91909116610100526001600160a01b0391821660e05291811660c0529190911660a052600281900b610120529050620000c781620000db602090811b6200250e17901c565b6001600160801b0316610140525062000220565b60008082600281900b620d89e71981620000f957620000f96200020a565b05029050600083600281900b620d89e8816200011957620001196200020a565b0502905060008460020b83830360020b816200013957620001396200020a565b0560010190508062ffffff166001600160801b038016816200015f576200015f6200020a565b0495945050505050565b80516001600160a01b03811681146200018157600080fd5b919050565b600080600080600060a086880312156200019f57600080fd5b620001aa8662000169565b9450620001ba6020870162000169565b9350620001ca6040870162000169565b9250606086015162ffffff81168114620001e357600080fd5b8092505060808601518060020b8114620001fc57600080fd5b809150509295509295909350565b634e487b7160e01b600052601260045260246000fd5b60805160a05160c05160e05161010051610120516101405161545562000307600039600081816104650152818161417c01526141b301526000818161054e015281816109ce015281816141e701526142190152600081816105af01528181610acc0152818161167a01526116b1015260008181610588015281816110820152818161173401528181611b1701528181611f960152613521015260008181610198015281816111580152818161170301528181611ab101528181611f10015261342301526000818161052701528181611c110152611dc90152600061259b01526154556000f3fe608060405234801561001057600080fd5b506004361061018e5760003560e01c806370cf754a116100de578063c45a015511610097578063ddca3f4311610071578063ddca3f43146105aa578063f3058399146105e5578063f30dba93146105ee578063f637731d146106c257600080fd5b8063c45a015514610522578063d0c93a7c14610549578063d21220a71461058357600080fd5b806370cf754a146104605780638206a4d11461048757806385b667291461049a578063883bdbfd146104ad578063a34123a7146104ce578063a38807f2146104e157600080fd5b80633850c7bd1161014b578063490e6cbc11610125578063490e6cbc146103995780634f1eb3d8146103ac578063514ea4bf146103bf5780635339c2961461044057600080fd5b80633850c7bd146102ca5780633c8a7d8d1461036f578063461413191461038257600080fd5b80630dfe168114610193578063128acb08146101d75780631a686502146101ff5780631ad8b03b1461022a578063252c09d71461026857806332148f67146102b5575b600080fd5b6101ba7f000000000000000000000000000000000000000000000000000000000000000081565b6040516001600160a01b0390911681526020015b60405180910390f35b6101ea6101e5366004614ca5565b6106d5565b604080519283526020830191909152016101ce565b600454610212906001600160801b031681565b6040516001600160801b0390911681526020016101ce565b600354610248906001600160801b0380821691600160801b90041682565b604080516001600160801b039384168152929091166020830152016101ce565b61027b610276366004614d2a565b6112b8565b6040805163ffffffff909516855260069390930b60208501526001600160a01b0390911691830191909152151560608201526080016101ce565b6102c86102c3366004614d43565b6112fd565b005b60005461031e906001600160a01b03811690600160a01b810460020b9061ffff600160b81b8204811691600160c81b8104821691600160d81b8204169060ff600160e81b8204811691600160f01b90041687565b604080516001600160a01b03909816885260029690960b602088015261ffff94851695870195909552918316606086015291909116608084015260ff1660a0830152151560c082015260e0016101ce565b6101ea61037d366004614d90565b6113dc565b61038b60025481565b6040519081526020016101ce565b6102c86103a7366004614dde565b611609565b6102486103ba366004614e48565b6119c0565b61040a6103cd366004614d2a565b60076020526000908152604090208054600182015460028301546003909301546001600160801b0392831693919281811691600160801b90041685565b604080516001600160801b039687168152602081019590955284019290925283166060830152909116608082015260a0016101ce565b61038b61044e366004614eaf565b60066020526000908152604090205481565b6102127f000000000000000000000000000000000000000000000000000000000000000081565b6102c8610495366004614ee3565b611bc0565b6102486104a8366004614f16565b611d75565b6104c06104bb366004614f5b565b61202c565b6040516101ce929190614fd0565b6101ea6104dc366004615057565b6120b3565b6104f46104ef366004615083565b61220c565b6040805160069490940b84526001600160a01b03909216602084015263ffffffff16908201526060016101ce565b6101ba7f000000000000000000000000000000000000000000000000000000000000000081565b6105707f000000000000000000000000000000000000000000000000000000000000000081565b60405160029190910b81526020016101ce565b6101ba7f000000000000000000000000000000000000000000000000000000000000000081565b6105d17f000000000000000000000000000000000000000000000000000000000000000081565b60405162ffffff90911681526020016101ce565b61038b60015481565b6106666105fc3660046150ad565b60056020526000908152604090208054600182015460028301546003909301546001600160801b03831693600160801b909304600f0b9290600681900b90600160381b81046001600160a01b031690600160d81b810463ffffffff1690600160f81b900460ff1688565b604080516001600160801b039099168952600f9790970b602089015295870194909452606086019290925260060b60808501526001600160a01b031660a084015263ffffffff1660c0830152151560e0820152610100016101ce565b6102c86106d03660046150c8565b6123e7565b6000806106e0612590565b856106fd57604051627ffe0360e31b815260040160405180910390fd5b6040805160e0810182526000546001600160a01b0381168252600160a01b810460020b602083015261ffff600160b81b8204811693830193909352600160c81b810483166060830152600160d81b8104909216608082015260ff600160e81b8304811660a0830152600160f01b909204909116151560c08201819052610796576040516350dfbc4360e11b815260040160405180910390fd5b876107e15780600001516001600160a01b0316866001600160a01b03161180156107dc575073fffd8963efd1fc6a506488495d951d5263988d266001600160a01b038716105b610813565b80600001516001600160a01b0316866001600160a01b031610801561081357506401000276a36001600160a01b038716115b6108495760405162461bcd60e51b815260206004820152600360248201526214d41360ea1b604482015260640160405180910390fd5b6000805460ff60f01b191681556040805160c08101909152808a6108785760048460a0015160ff16901c610889565b60108460a0015161088991906150fb565b60ff1681526004546001600160801b031660208201526040014263ffffffff168152602001600060060b815260200160006001600160a01b031681526020016000151581525090506000808913905060006040518060e001604052808b81526020016000815260200185600001516001600160a01b03168152602001856020015160020b81526020018c61091f57600254610923565b6001545b815260200160006001600160801b0316815260200184602001516001600160801b031681525090505b8051158015906109725750886001600160a01b031681604001516001600160a01b031614155b15610e78576040805160e081018252600080825260208201819052918101829052606081018290526080810182905260a0810182905260c081019190915260408201516001600160a01b0316815260608201516109f3906006907f00000000000000000000000000000000000000000000000000000000000000008f6125c7565b1515604083015260020b60208201819052620d89e7191315610a1e57620d89e7196020820152610a52565b610a2b620d89e719615133565b60020b816020015160020b1315610a5257610a49620d89e719615133565b60020b60208201525b610a5f8160200151612709565b6001600160a01b031660608201526040820151610af0908d610a99578b6001600160a01b031683606001516001600160a01b031611610ab3565b8b6001600160a01b031683606001516001600160a01b0316105b610ac1578260600151610ac3565b8b5b60c085015185517f0000000000000000000000000000000000000000000000000000000000000000612a28565b60c085015260a084015260808301526001600160a01b031660408301528215610b5257610b268160c00151826080015101612c1a565b825103825260a0810151610b3990612c1a565b82602001818151610b4a9190615156565b905250610b95565b610b5f8160a00151612c1a565b825101825260c08101516080820151610b8091610b7b91615195565b612c1a565b82602001818151610b9191906151ad565b9052505b835160ff1615610be1576000846000015160ff168260c0015181610bbb57610bbb6150e5565b60c0840180519290910491829003905260a0840180519091016001600160801b03169052505b60c08201516001600160801b031615610c2057610c148160c00151600160801b8460c001516001600160801b0316612c30565b60808301805190910190525b80606001516001600160a01b031682604001516001600160a01b03161415610e3b57806040015115610e16578360a00151610ca657610c88846040015160008760200151886040015188602001518a606001516008612ce4909695949392919063ffffffff16565b6001600160a01b0316608086015260060b6060850152600160a08501525b6000610dc282602001518e610cbd57600154610cc3565b84608001515b8f610cd2578560800151610cd6565b6002545b608089015160608a01516040808c0151600296870b6000908152600560205291909120600181018054909603909555948401805490930390925560038301805463ffffffff600160d81b66ffffffffffffff196001600160a01b03600160381b8086048216909703169095029485166001600160d81b031984161766ffffffffffffff670100000000000000600160d81b03198516871760060b9097039690961695861781900482169097031690950266ffffffffffffff63ffffffff60d81b0119929092166001600160f81b031990951694909417919091171790915554600160801b9004600f0b90565b90508c15610dce576000035b600081600f0b12610dee57808360c00151610de991906151ee565b610e06565b610df781615219565b8360c00151610e069190615237565b6001600160801b031660c0840152505b8b610e25578060200151610e2e565b60018160200151035b60020b6060830152610e72565b80600001516001600160a01b031682604001516001600160a01b031614610e7257610e698260400151612e94565b60020b60608301525b5061094c565b836020015160020b816060015160020b14610f4257600080610ec686604001518660400151886020015188602001518a606001518b608001516008613196909695949392919063ffffffff16565b604085015160608601516000805463ffffffff60b81b1916600160c81b61ffff9586160261ffff60b81b191617600160b81b9590941694909402929092176001600160b81b031916600160a01b62ffffff909316929092026001600160a01b031916919091176001600160a01b0390911617905550610f679050565b6040810151600080546001600160a01b0319166001600160a01b039092169190911790555b8060c001516001600160801b031683602001516001600160801b031614610fad5760c0810151600480546001600160801b0319166001600160801b039092169190911790555b8a15610ffd57608081015160015560a08101516001600160801b031615610ff85760a0810151600380546001600160801b031981166001600160801b03918216909301169190911790555b611043565b608081015160025560a08101516001600160801b0316156110435760a0810151600380546001600160801b03808216600160801b92839004821690940116029190911790555b8115158b15151461105c57602081015181518b03611069565b80600001518a0381602001515b90965094508a1561114a5760008512156110ab576110ab7f00000000000000000000000000000000000000000000000000000000000000008d8760000361331d565b60006110b5613409565b60405163fa461e3360e01b8152909150339063fa461e33906110e1908a908a908e908e90600401615288565b600060405180830381600087803b1580156110fb57600080fd5b505af115801561110f573d6000803e3d6000fd5b5050505061111b613409565b6111258883615195565b111561114457604051635d05ca8f60e11b815260040160405180910390fd5b5061121c565b6000861215611181576111817f00000000000000000000000000000000000000000000000000000000000000008d8860000361331d565b600061118b613507565b60405163fa461e3360e01b8152909150339063fa461e33906111b7908a908a908e908e90600401615288565b600060405180830381600087803b1580156111d157600080fd5b505af11580156111e5573d6000803e3d6000fd5b505050506111f1613507565b6111fb8783615195565b111561121a57604051635d05ca8f60e11b815260040160405180910390fd5b505b60408082015160c083015160608085015184518b8152602081018b90526001600160a01b03948516958101959095526001600160801b039092169084015260020b60808301528d169033907fc42079f94a6350d7e6235f29174924f928cc2ac818eb64fed8004e115fbcca679060a00160405180910390a350506000805460ff60f01b1916600160f01b17905550919890975095505050505050565b60088161ffff81106112c957600080fd5b015463ffffffff81169150600160201b810460060b90600160581b81046001600160a01b031690600160f81b900460ff1684565b600054600160f01b900460ff16611327576040516350dfbc4360e11b815260040160405180910390fd5b6000805460ff60f01b1916905561133c612590565b60008054600160d81b900461ffff169061135860088385613553565b6000805461ffff808416600160d81b810261ffff60d81b19909316929092179092559192508316146113c4576040805161ffff8085168252831660208201527fac49e518f90a358f652e4400164f05a5d8f7e35e7747279bc3a93dbf584e125a91015b60405180910390a15b50506000805460ff60f01b1916600160f01b17905550565b600080548190600160f01b900460ff16611409576040516350dfbc4360e11b815260040160405180910390fd5b6000805460ff60f01b191690556001600160801b03851661142957600080fd5b60008061147760405180608001604052808c6001600160a01b031681526020018b60020b81526020018a60020b815260200161146d8a6001600160801b03166135e4565b600f0b90526135fa565b9250925050819350809250600080600086111561149957611496613409565b91505b84156114aa576114a7613507565b90505b60405163d348799760e01b8152339063d3487997906114d390899089908d908d90600401615288565b600060405180830381600087803b1580156114ed57600080fd5b505af1158015611501573d6000803e3d6000fd5b505050506000861180156115245750611518613409565b6115228784615195565b115b156115425760405163748800af60e01b815260040160405180910390fd5b6000851180156115615750611555613507565b61155f8683615195565b115b1561157f57604051631072b39760e11b815260040160405180910390fd5b604080513381526001600160801b038b1660208201529081018790526060810186905260028b810b91908d900b906001600160a01b038f16907f7a53080ba414158be7ec69b987b5fb7d07dee101fe85488f0853ae16239d0bde9060800160405180910390a450506000805460ff60f01b1916600160f01b17905550919890975095505050505050565b600054600160f01b900460ff16611633576040516350dfbc4360e11b815260040160405180910390fd5b6000805460ff60f01b19169055611648612590565b6004546001600160801b03168061167257604051639f13f76d60e01b815260040160405180910390fd5b60006116a7867f000000000000000000000000000000000000000000000000000000000000000062ffffff16620f424061385c565b905060006116de867f000000000000000000000000000000000000000000000000000000000000000062ffffff16620f424061385c565b905060006116ea613409565b905060006116f6613507565b90508815611729576117297f00000000000000000000000000000000000000000000000000000000000000008b8b61331d565b871561175a5761175a7f00000000000000000000000000000000000000000000000000000000000000008b8a61331d565b604051630e9cbafb60e41b8152339063e9cbafb09061178390879087908c908c90600401615288565b600060405180830381600087803b15801561179d57600080fd5b505af11580156117b1573d6000803e3d6000fd5b5050505060006117bf613409565b905060006117cb613507565b9050816117d88786615195565b11156117f75760405163f704e89960e01b815260040160405180910390fd5b806118028685615195565b11156118215760405163e90c349360e01b815260040160405180910390fd5b8382038382038386146118b75760008054600160e81b9004600f1690811561185b578160ff168481611855576118556150e5565b0461185e565b60005b90506001600160801b0381161561189157600380546001600160801b038082168401166001600160801b03199091161790555b6118ab818503600160801b8d6001600160801b0316612c30565b60018054909101905550505b80156119485760008054600160e81b900460041c600f169081156118ed578160ff1683816118e7576118e76150e5565b046118f0565b60005b90506001600160801b0381161561192257600380546001600160801b03600160801b8083048216850182160291161790555b61193c818403600160801b8d6001600160801b0316612c30565b60028054909101905550505b604080518e8152602081018e9052908101839052606081018290526001600160a01b038f169033907fbdbdb71d7860376ba52b25a5028beea23581364a40522f6bcfb86bb1f2dca6339060800160405180910390a350506000805460ff60f01b1916600160f01b179055505050505050505050505050565b600080548190600160f01b900460ff166119ed576040516350dfbc4360e11b815260040160405180910390fd5b6000805460ff60f01b19168155611a07600733898961389c565b60038101549091506001600160801b0390811690861611611a285784611a37565b60038101546001600160801b03165b60038201549093506001600160801b03600160801b909104811690851611611a5f5783611a75565b6003810154600160801b90046001600160801b03165b91506001600160801b03831615611ada576003810180546001600160801b031981166001600160801b03918216869003821617909155611ada907f0000000000000000000000000000000000000000000000000000000000000000908a90861661331d565b6001600160801b03821615611b40576003810180546001600160801b03600160801b808304821686900382160291811691909117909155611b40907f0000000000000000000000000000000000000000000000000000000000000000908a90851661331d565b604080516001600160a01b038a1681526001600160801b0385811660208301528416818301529051600288810b92908a900b9133917f70935338e69775456a85ddef226c395fb668b63fa0115f5f20610b388e6ca9c0919081900360600190a4506000805460ff60f01b1916600160f01b17905590969095509350505050565b600054600160f01b900460ff16611bea576040516350dfbc4360e11b815260040160405180910390fd5b6000805460ff60f01b1916905560408051638da5cb5b60e01b815290516001600160a01b037f00000000000000000000000000000000000000000000000000000000000000001691638da5cb5b9160048083019260209291908290030181865afa158015611c5c573d6000803e3d6000fd5b505050506040513d601f19601f82011682018060405250810190611c8091906152b2565b6001600160a01b0316336001600160a01b031614611c9d57600080fd5b60ff82161580611cc0575060048260ff1610158015611cc05750600a8260ff1611155b8015611cea575060ff81161580611cea575060048160ff1610158015611cea5750600a8160ff1611155b611cf357600080fd5b60008054610ff0600484901b16840160ff908116600160e81b90810260ff60e81b19841617909355919004167f973d8d92bb299f4af6ce49b52a8adb85ae46b9f214c4c4fc06ac77401237b1336010826040805160ff9390920683168252600f600486901c1660208301528683169082015290841660608201526080016113bb565b600080548190600160f01b900460ff16611da2576040516350dfbc4360e11b815260040160405180910390fd5b6000805460ff60f01b1916905560408051638da5cb5b60e01b815290516001600160a01b037f00000000000000000000000000000000000000000000000000000000000000001691638da5cb5b9160048083019260209291908290030181865afa158015611e14573d6000803e3d6000fd5b505050506040513d601f19601f82011682018060405250810190611e3891906152b2565b6001600160a01b0316336001600160a01b031614611e5557600080fd5b6003546001600160801b0390811690851611611e715783611e7e565b6003546001600160801b03165b6003549092506001600160801b03600160801b909104811690841611611ea45782611eb8565b600354600160801b90046001600160801b03165b90506001600160801b03821615611f39576003546001600160801b0383811691161415611ee757600019909101905b600380546001600160801b031981166001600160801b03918216859003821617909155611f39907f0000000000000000000000000000000000000000000000000000000000000000908790851661331d565b6001600160801b03811615611fbf576003546001600160801b03828116600160801b909204161415611f6a57600019015b600380546001600160801b03600160801b808304821685900382160291811691909117909155611fbf907f0000000000000000000000000000000000000000000000000000000000000000908790841661331d565b604080516001600160801b038085168252831660208201526001600160a01b0387169133917f596b573906218d3411850b26a6b437d6c4522fdb43d2d2386263f86d50b8b151910160405180910390a36000805460ff60f01b1916600160f01b1790559094909350915050565b606080612037612590565b6120a742858580806020026020016040519081016040528093929190818152602001838360200280828437600092018290525054600454600896959450600160a01b820460020b935061ffff600160b81b8304811693506001600160801b0390911691600160c81b9004166138f9565b915091505b9250929050565b600080548190600160f01b900460ff166120e0576040516350dfbc4360e11b815260040160405180910390fd5b6000805460ff60f01b1916815560408051608081018252338152600288810b602083015287900b9181019190915281908190612139906060810161212c6001600160801b038a166135e4565b600003600f0b90526135fa565b925092509250816000039450806000039350600085118061215a5750600084115b15612195576003830180546001600160801b0380821688018116600160801b92839004821688019091169091026001600160801b0319161790555b604080516001600160801b038816815260208101879052908101859052600288810b91908a900b9033907f0c396cd989a39f4459b5fa1aed6a9a8dcdbc45908acfd67e028cd568da98982c9060600160405180910390a450506000805460ff60f01b1916600160f01b179055509094909350915050565b6000806000612219612590565b6122238585613a44565b600285810b6000908152600560205260408082209287900b825281206003830154600681900b93600160381b82046001600160a01b0316928492600160d81b810463ffffffff169284929091600160f81b900460ff168061228357600080fd5b6003820154600681900b9850600160381b81046001600160a01b03169650600160d81b810463ffffffff169450600160f81b900460ff16806122c457600080fd5b50506040805160e0810182526000546001600160a01b0381168252600160a01b8104600290810b6020840181905261ffff600160b81b8404811695850195909552600160c81b830485166060850152600160d81b8304909416608084015260ff600160e81b8304811660a0850152600160f01b909204909116151560c08301529093508e900b13159050612366575093909403965090039350900390506123e0565b8a60020b816020015160020b12156123d157602081015160408201516004546060840151429360009384936123af9360089388938793919290916001600160801b031690612ce4565b9a9003989098039b5050949096039290920396509091030392506123e0915050565b50949093039650039350900390505b9250925092565b6000546001600160a01b0316156124115760405163139816ff60e31b815260040160405180910390fd5b600061241c82612e94565b604080516080808201835263ffffffff42168083526000602080850182905284860182905260016060958601819052600160f81b909317600855855160e0810187526001600160a01b038a16808252600289900b82840181905282890185905296820185905294810184905260a0810183905260c00183905281546001600160b81b0319168417600160a01b62ffffff8916021767ffffffffffffffff60b81b19166501000001000160c81b1790915584519283528201929092528251939450909283927f98636036cb66a9c19a37435efc1e90142190214e8abeb821bdba3f2990dd4c95928290030190a150505050565b60008082600281900b620d89e71981612529576125296150e5565b05029050600083600281900b620d89e881612546576125466150e5565b0502905060008460020b83830360020b81612563576125636150e5565b0560010190508062ffffff166001600160801b03801681612586576125866150e5565b0495945050505050565b306001600160a01b037f000000000000000000000000000000000000000000000000000000000000000016146125c557600080fd5b565b60008060008460020b8660020b816125e1576125e16150e5565b05905060008660020b12801561260e57508460020b8660020b81612607576126076150e5565b0760020b15155b1561261857600019015b831561268c57600281900b600881901d600181810b600090815260208b9052604090205461010090930760ff81169190911b8001600019019283168015159550919290918561266e57888360ff16860302612681565b8861267882613aca565b840360ff168603025b9650505050506126ff565b600181810160020b600881901d80830b600090815260208b9052604090205461010090920760ff81169390931b6000190119918216801515955090929190856126e257888360ff0360ff168660010101026126f8565b88836126ed83613b69565b0360ff168660010101025b9650505050505b5094509492505050565b60008060008360020b12612720578260020b612728565b8260020b6000035b9050620d89e881111561274e576040516315e4079d60e11b815260040160405180910390fd5b60006001821661276257600160801b612774565b6ffffcb933bd6fad37aa2d162d1a5940015b70ffffffffffffffffffffffffffffffffff16905060028216156127a8576ffff97272373d413259a46990580e213a0260801c5b60048216156127c7576ffff2e50f5f656932ef12357cf3c7fdcc0260801c5b60088216156127e6576fffe5caca7e10e4e61c3624eaa0941cd00260801c5b6010821615612805576fffcb9843d60f6159c9db58835c9266440260801c5b6020821615612824576fff973b41fa98c081472e6896dfb254c00260801c5b6040821615612843576fff2ea16466c96a3843ec78b326b528610260801c5b6080821615612862576ffe5dee046a99a2a811c461f1969c30530260801c5b610100821615612882576ffcbe86c7900a88aedcffc83b479aa3a40260801c5b6102008216156128a2576ff987a7253ac413176f2b074cf7815e540260801c5b6104008216156128c2576ff3392b0822b70005940c7a398e4b70f30260801c5b6108008216156128e2576fe7159475a2c29b7443b29c7fa6e889d90260801c5b611000821615612902576fd097f3bdfd2022b8845ad8f792aa58250260801c5b612000821615612922576fa9f746462d870fdf8a65dc1f90e061e50260801c5b614000821615612942576f70d869a156d2a1b890bb3df62baf32f70260801c5b618000821615612962576f31be135f97d08fd981231505542fcfa60260801c5b62010000821615612983576f09aa508b5b7a84e1c677de54f3e99bc90260801c5b620200008216156129a3576e5d6af8dedb81196699c329225ee6040260801c5b620400008216156129c2576d2216e584f5fa1ea926041bedfe980260801c5b620800008216156129df576b048a170391f7dc42444e8fa20260801c5b60008460020b1315612a005780600019816129fc576129fc6150e5565b0490505b600160201b810615612a13576001612a16565b60005b60ff16602082901c0192505050919050565b60008080806001600160a01b03808916908a161015818712801590612aad576000612a618989620f42400362ffffff16620f4240612c30565b905082612a7a57612a758c8c8c6001613c53565b612a87565b612a878b8d8c6001613cce565b9550858110612a98578a9650612aa7565b612aa48c8b8386613d85565b96505b50612af7565b81612ac457612abf8b8b8b6000613cce565b612ad1565b612ad18a8c8b6000613c53565b9350838860000310612ae557899550612af7565b612af48b8a8a60000385613dd1565b95505b6001600160a01b038a8116908716148215612b5a57808015612b165750815b612b2c57612b27878d8c6001613cce565b612b2e565b855b9550808015612b3b575081155b612b5157612b4c878d8c6000613c53565b612b53565b845b9450612ba4565b808015612b645750815b612b7a57612b758c888c6001613c53565b612b7c565b855b9550808015612b89575081155b612b9f57612b9a8c888c6000613cce565b612ba1565b845b94505b81158015612bb457508860000385115b15612bc0578860000394505b818015612bdf57508a6001600160a01b0316876001600160a01b031614155b15612bee578589039350612c0b565b612c08868962ffffff168a620f42400362ffffff1661385c565b93505b50505095509550955095915050565b6000600160ff1b8210612c2c57600080fd5b5090565b600080806000198587098587029250828110838203039150508060001415612c6a5760008411612c5f57600080fd5b508290049050612cdd565b808411612c7657600080fd5b6000848688096000868103871696879004966002600389028118808a02820302808a02820302808a02820302808a02820302808a02820302808a02909103029181900381900460010186841190950394909402919094039290920491909117919091029150505b9392505050565b60008063ffffffff8716612d8a576000898661ffff1661ffff8110612d0b57612d0b6152cf565b60408051608081018252919092015463ffffffff808216808452600160201b830460060b6020850152600160581b83046001600160a01b031694840194909452600160f81b90910460ff16151560608301529092508a1614612d7657612d73818a8988613e1d565b90505b806020015181604001519250925050612e88565b868803600080612d9f8c8c858c8c8c8c613ee2565b91509150816000015163ffffffff168363ffffffff161415612dd1578160200151826040015194509450505050612e88565b805163ffffffff84811691161415612df9578060200151816040015194509450505050612e88565b60008260000151826000015103905060008360000151850390508063ffffffff168263ffffffff1660060b856020015185602001510360060b81612e3f57612e3f6150e5565b05028460200151018263ffffffff168263ffffffff1686604001518660400151036001600160a01b03160281612e7757612e776150e5565b048560400151019650965050505050505b97509795505050505050565b60006401000276a36001600160a01b03831610801590612ed0575073fffd8963efd1fc6a506488495d951d5263988d266001600160a01b038316105b612eed576040516324c070df60e11b815260040160405180910390fd5b640100000000600160c01b03602083901b166001600160801b03811160071b81811c67ffffffffffffffff811160061b90811c63ffffffff811160051b90811c61ffff811160041b90811c60ff8111600390811b91821c600f811160021b90811c918211600190811b92831c97908811961790941790921717909117171760808110612f8157607f810383901c9150612f8b565b80607f0383901b91505b908002607f81811c60ff83811c9190911c800280831c81831c1c800280841c81841c1c800280851c81851c1c800280861c81861c1c800280871c81871c1c800280881c81881c1c800280891c81891c1c8002808a1c818a1c1c8002808b1c818b1c1c8002808c1c818c1c1c8002808d1c818d1c1c8002808e1c9c81901c9c909c1c80029c8d901c9e9d607f198f0160401b60c09190911c678000000000000000161760c19b909b1c674000000000000000169a909a1760c29990991c672000000000000000169890981760c39790971c671000000000000000169690961760c49590951c670800000000000000169490941760c59390931c670400000000000000169290921760c69190911c670200000000000000161760c79190911c600160381b161760c89190911c6680000000000000161760c99190911c6640000000000000161760ca9190911c6620000000000000161760cb9190911c6610000000000000161760cc9190911c6608000000000000161760cd9190911c66040000000000001617693627a301d71055774c8581026f028f6481ab7f045a5af012a19d003aa9198101608090811d906fdb2df09e81959a81455e260799a0632f8301901d600281810b9083900b1461318757886001600160a01b031661316c82612709565b6001600160a01b031611156131815781613189565b80613189565b815b9998505050505050505050565b6000806000898961ffff1661ffff81106131b2576131b26152cf565b60408051608081018252919092015463ffffffff808216808452600160201b830460060b6020850152600160581b83046001600160a01b031694840194909452600160f81b90910460ff16151560608301529092508916141561321b5788859250925050612e88565b8461ffff168461ffff1611801561323c57506001850361ffff168961ffff16145b156132495783915061324d565b8491505b8161ffff168960010161ffff1681613267576132676150e5565b06925061327681898989613e1d565b8a8461ffff1661ffff811061328d5761328d6152cf565b825191018054602084015160408501516060909501511515600160f81b026001600160f81b036001600160a01b03909616600160581b02959095166affffffffffffffffffffff66ffffffffffffff909216600160201b026affffffffffffffffffffff1990931663ffffffff909516949094179190911716919091179190911790555097509795505050505050565b604080516001600160a01b038481166024830152604480830185905283518084039091018152606490920183526020820180516001600160e01b031663a9059cbb60e01b179052915160009283929087169161337991906152e5565b6000604051808303816000865af19150503d80600081146133b6576040519150601f19603f3d011682016040523d82523d6000602084013e6133bb565b606091505b50915091508180156133e55750805115806133e55750808060200190518101906133e59190615320565b61340257604051638b98626560e01b815260040160405180910390fd5b5050505050565b604051306024820152600090819081906001600160a01b037f000000000000000000000000000000000000000000000000000000000000000016906370a0823160e01b906044015b60408051601f198184030181529181526020820180516001600160e01b03166001600160e01b031990941693909317909252905161348f91906152e5565b600060405180830381855afa9150503d80600081146134ca576040519150601f19603f3d011682016040523d82523d6000602084013e6134cf565b606091505b50915091508180156134e357506020815110155b6134ec57600080fd5b80806020019051810190613500919061533d565b9250505090565b604051306024820152600090819081906001600160a01b037f000000000000000000000000000000000000000000000000000000000000000016906370a0823160e01b90604401613451565b6000808361ffff161161357957604051636b93000360e11b815260040160405180910390fd5b8261ffff168261ffff161161358f575081612cdd565b825b8261ffff168161ffff1610156135db576001858261ffff1661ffff81106135ba576135ba6152cf565b01805463ffffffff191663ffffffff92909216919091179055600101613591565b50909392505050565b80600f81900b81146135f557600080fd5b919050565b6000806000613607612590565b61361984602001518560400151613a44565b6040805160e0810182526000546001600160a01b0381168252600160a01b810460020b602080840182905261ffff600160b81b8404811685870152600160c81b84048116606080870191909152600160d81b8504909116608086015260ff600160e81b8504811660a0870152600160f01b909404909316151560c0850152885190890151948901519289015193946136b794919390929091906140fa565b93508460600151600f0b60001461385457846020015160020b816020015160020b121561370c576137056136ee8660200151612709565b6136fb8760400151612709565b87606001516142df565b9250613854565b846040015160020b816020015160020b121561382a5760045460408201516001600160801b039091169061375790426020850151606086015160808701516008949392918791613196565b6000805463ffffffff60b81b1916600160c81b61ffff9384160261ffff60b81b191617600160b81b9390921692909202179055815160408701516137a9919061379f90612709565b88606001516142df565b93506137c76137bb8760200151612709565b8351606089015161431e565b925060008660600151600f0b126137ec5760608601516137e790826151ee565b613804565b85606001516137fa90615219565b6138049082615237565b600480546001600160801b0319166001600160801b039290921691909117905550613854565b61385161383a8660200151612709565b6138478760400151612709565b876060015161431e565b91505b509193909250565b6000613869848484612c30565b90506000828061387b5761387b6150e5565b8486091115612cdd57600019811061389257600080fd5b6001019392505050565b6040805160609490941b6bffffffffffffffffffffffff191660208086019190915260e893841b60348601529190921b60378401528151601a818503018152603a9093018252825192810192909220600090815292909152902090565b60608060008361ffff161161392157604051636b93000360e11b815260040160405180910390fd5b865167ffffffffffffffff81111561393b5761393b615356565b604051908082528060200260200182016040528015613964578160200160208202803683370190505b509150865167ffffffffffffffff81111561398157613981615356565b6040519080825280602002602001820160405280156139aa578160200160208202803683370190505b50905060005b8751811015613a37576139e18a8a8a84815181106139d0576139d06152cf565b60200260200101518a8a8a8a612ce4565b8483815181106139f3576139f36152cf565b60200260200101848481518110613a0c57613a0c6152cf565b6001600160a01b039093166020938402919091019092019190915260069190910b90526001016139b0565b5097509795505050505050565b8060020b8260020b12613a6a57604051632fe0284f60e01b815260040160405180910390fd5b620d89e719600283900b1215613a935760405163135ac25d60e31b815260040160405180910390fd5b613aa0620d89e719615133565b60020b8160020b1315613ac65760405163d7b54ab160e01b815260040160405180910390fd5b5050565b6000808211613ad857600080fd5b600160801b8210613aeb57608091821c91015b680100000000000000008210613b0357604091821c91015b600160201b8210613b1657602091821c91015b620100008210613b2857601091821c91015b6101008210613b3957600891821c91015b60108210613b4957600491821c91015b60048210613b5957600291821c91015b600282106135f557600101919050565b6000808211613b7757600080fd5b5060ff6001600160801b03821615613b9257607f1901613b9a565b608082901c91505b67ffffffffffffffff821615613bb357603f1901613bbb565b604082901c91505b63ffffffff821615613bd057601f1901613bd8565b602082901c91505b61ffff821615613beb57600f1901613bf3565b601082901c91505b60ff821615613c055760071901613c0d565b600882901c91505b600f821615613c1f5760031901613c27565b600482901c91505b6003821615613c395760011901613c41565b600282901c91505b60018216156135f55760001901919050565b6000836001600160a01b0316856001600160a01b03161115613c73579293925b81613ca057613c9b836001600160801b03168686036001600160a01b0316600160601b612c30565b613cc3565b613cc3836001600160801b03168686036001600160a01b0316600160601b61385c565b90505b949350505050565b6000836001600160a01b0316856001600160a01b03161115613cee579293925b600160601b600160e01b03606084901b166001600160a01b038686038116908716613d1857600080fd5b83613d4e57866001600160a01b0316613d3b8383896001600160a01b0316612c30565b81613d4857613d486150e5565b04613d7a565b613d7a613d658383896001600160a01b031661385c565b886001600160a01b0316808204910615150190565b979650505050505050565b600080856001600160a01b031611613d9c57600080fd5b6000846001600160801b031611613db257600080fd5b81613dc457613c9b858585600161434d565b613cc38585856001614433565b600080856001600160a01b031611613de857600080fd5b6000846001600160801b031611613dfe57600080fd5b81613e1057613c9b8585856000614433565b613cc3858585600061434d565b604080516080810182526000808252602082018190529181018290526060810191909152600085600001518503905060405180608001604052808663ffffffff1681526020018263ffffffff168660020b0288602001510160060b81526020016000856001600160801b031611613e95576001613e97565b845b6001600160801b031663ffffffff60801b608085901b1681613ebb57613ebb6150e5565b048860400151016001600160a01b0316815260200160011515815250915050949350505050565b604080516080810182526000808252602082018190529181018290526060810191909152604080516080810182526000808252602082018190529181018290526060810191909152888561ffff1661ffff8110613f4157613f416152cf565b60408051608081018252919092015463ffffffff8116808352600160201b820460060b6020840152600160581b82046001600160a01b031693830193909352600160f81b900460ff16151560608201529250613f9f90899089614521565b15613fd7578663ffffffff16826000015163ffffffff161415613fc157612e88565b81613fce83898988613e1d565b91509150612e88565b888361ffff168660010161ffff1681613ff257613ff26150e5565b0661ffff1661ffff8110614008576140086152cf565b60408051608081018252929091015463ffffffff81168352600160201b810460060b60208401526001600160a01b03600160581b8204169183019190915260ff600160f81b909104161515606082018190529092506140b157604080516080810182528a5463ffffffff81168252600160201b810460060b6020830152600160581b81046001600160a01b031692820192909252600160f81b90910460ff161515606082015291505b6140c088836000015189614521565b6140dd576040516327e8e87560e01b815260040160405180910390fd5b6140ea89898988876145e2565b9150915097509795505050505050565b6000614109600787878761389c565b60015460025491925090600080600f87900b15614241576000805460045442929182916141669160089186918591600160a01b820460020b9161ffff600160b81b82048116926001600160801b031691600160c81b900416612ce4565b90925090506141a060058d8b8d8b8b87898b60007f00000000000000000000000000000000000000000000000000000000000000006147ca565b94506141d760058c8b8d8b8b87898b60017f00000000000000000000000000000000000000000000000000000000000000006147ca565b9350841561420b5761420b60068d7f0000000000000000000000000000000000000000000000000000000000000000614966565b831561423d5761423d60068c7f0000000000000000000000000000000000000000000000000000000000000000614966565b5050505b60008061425360058c8c8b8a8a6149e3565b9092509050614264878a8484614a8a565b600089600f0b12156142d05783156142a05760028b810b6000908152600560205260408120818155600181018290559182018190556003909101555b82156142d05760028a810b6000908152600560205260408120818155600181018290559182018190556003909101555b50505050505095945050505050565b60008082600f0b12614300576142fb610b7b8585856001613cce565b613cc6565b614313610b7b8585856000036000613cce565b600003949350505050565b60008082600f0b1261433a576142fb610b7b8585856001613c53565b614313610b7b8585856000036000613c53565b600081156143bf5760006001600160a01b038411156143835761437e84600160601b876001600160801b0316612c30565b61439a565b61439a6001600160801b038616606086901b61536c565b90506143b76143b2826001600160a01b038916615195565b614c27565b915050613cc6565b60006001600160a01b038411156143ed576143e884600160601b876001600160801b031661385c565b61440a565b61440a606085901b6001600160801b038716808204910615150190565b905080866001600160a01b03161161442157600080fd5b6001600160a01b038616039050613cc6565b600082614441575083613cc6565b600160601b600160e01b03606085901b1682156144d4576001600160a01b03861684810290858281614475576144756150e5565b0414156144a6578181018281106144a45761449a83896001600160a01b03168361385c565b9350505050613cc6565b505b506143b781856144bf6001600160a01b038a168361536c565b6144c99190615195565b808204910615150190565b6001600160a01b038616848102908582816144f1576144f16150e5565b041480156144fe57508082115b61450757600080fd5b80820361449a6143b2846001600160a01b038b168461385c565b60008363ffffffff168363ffffffff161115801561454b57508363ffffffff168263ffffffff1611155b15614567578163ffffffff168363ffffffff1611159050612cdd565b60008463ffffffff168463ffffffff161161458e578363ffffffff16600160201b01614596565b8363ffffffff165b64ffffffffff16905060008563ffffffff168463ffffffff16116145c6578363ffffffff16600160201b016145ce565b8363ffffffff165b64ffffffffff169091111595945050505050565b60408051608081018252600080825260208201819052918101829052606081019190915260408051608081018252600080825260208201819052918101829052606081019190915260008361ffff168560010161ffff1681614646576146466150e5565b0661ffff169050600060018561ffff16830103905060005b506002818301048961ffff87168281614679576146796150e5565b0661ffff811061468b5761468b6152cf565b60408051608081018252929091015463ffffffff81168352600160201b810460060b60208401526001600160a01b03600160581b8204169183019190915260ff600160f81b909104161515606082018190529095506146ef5780600101925061465e565b898661ffff168260010181614706576147066150e5565b0661ffff8110614718576147186152cf565b60408051608081018252929091015463ffffffff81168352600160201b810460060b60208401526001600160a01b03600160581b8204169183019190915260ff600160f81b9091041615156060820152855190945060009061477c908b908b614521565b905080801561479557506147958a8a8760000151614521565b156147a057506147bd565b806147b0576001820392506147b7565b8160010193505b5061465e565b5050509550959350505050565b60028a900b600090815260208c90526040812080546001600160801b031682600f8c900b8113614803576147fe8c836151ee565b614816565b61480c8c615219565b6148169083615237565b9050846001600160801b0316816001600160801b0316111561484b576040516368d2be8f60e01b815260040160405180910390fd5b6001600160801b0382811615908216158114159450156148ea578c60020b8e60020b136148d257600183018b9055600283018a905560038301805466ffffffffffffff8a166001600160f81b0319909116600160381b6001600160a01b038d160266ffffffffffffff63ffffffff60d81b0119161717600160d81b63ffffffff8a16021790555b6003830180546001600160f81b0316600160f81b1790555b82546001600160801b0319166001600160801b0382161783558561492457825461491f908d90600160801b9004600f0b615380565b61493b565b825461493b908d90600160801b9004600f0b6153cf565b83546001600160801b03918216600160801b0291161790925550909c9b505050505050505050505050565b8060020b8260020b8161497b5761497b6150e5565b0760020b1561498957600080fd5b6000806149b78360020b8560020b816149a4576149a46150e5565b0560020b600881901d9161010090910790565b600191820b60009081526020979097526040909620805460ff9097169190911b90951890945550505050565b600285810b60008181526020899052604080822088850b83529082209193849391929184918291908a900b12614a2457505060018201546002830154614a37565b8360010154880391508360020154870390505b6000808b60020b8b60020b1215614a5957505060018301546002840154614a6c565b84600101548a0391508460020154890390505b92909803979097039b96909503949094039850939650505050505050565b6040805160a08101825285546001600160801b0390811682526001870154602083015260028701549282019290925260038601548083166060830152600160801b900490911660808201526000600f85900b614b105781516001600160801b0316614b0857604051632aabfc9960e11b815260040160405180910390fd5b508051614b45565b600085600f0b12614b2d578151614b289086906151ee565b614b42565b614b3685615219565b8251614b429190615237565b90505b600080614b6a8460200151870385600001516001600160801b0316600160801b612c30565b9150614b8e8460400151860385600001516001600160801b0316600160801b612c30565b905086600f0b600014614bb55787546001600160801b0319166001600160801b0384161788555b60018801869055600288018590556001600160801b038216151580614be357506000816001600160801b0316115b15614c1d57600388018054600160801b6001600160801b03808316860181166001600160801b031990931683178290048116850116021790555b5050505050505050565b806001600160a01b03811681146135f557600080fd5b6001600160a01b0381168114614c5257600080fd5b50565b8015158114614c5257600080fd5b60008083601f840112614c7557600080fd5b50813567ffffffffffffffff811115614c8d57600080fd5b6020830191508360208285010111156120ac57600080fd5b60008060008060008060a08789031215614cbe57600080fd5b8635614cc981614c3d565b95506020870135614cd981614c55565b9450604087013593506060870135614cf081614c3d565b9250608087013567ffffffffffffffff811115614d0c57600080fd5b614d1889828a01614c63565b979a9699509497509295939492505050565b600060208284031215614d3c57600080fd5b5035919050565b600060208284031215614d5557600080fd5b813561ffff81168114612cdd57600080fd5b8035600281900b81146135f557600080fd5b80356001600160801b03811681146135f557600080fd5b60008060008060008060a08789031215614da957600080fd5b8635614db481614c3d565b9550614dc260208801614d67565b9450614dd060408801614d67565b9350614cf060608801614d79565b600080600080600060808688031215614df657600080fd5b8535614e0181614c3d565b94506020860135935060408601359250606086013567ffffffffffffffff811115614e2b57600080fd5b614e3788828901614c63565b969995985093965092949392505050565b600080600080600060a08688031215614e6057600080fd5b8535614e6b81614c3d565b9450614e7960208701614d67565b9350614e8760408701614d67565b9250614e9560608701614d79565b9150614ea360808701614d79565b90509295509295909350565b600060208284031215614ec157600080fd5b81358060010b8114612cdd57600080fd5b803560ff811681146135f557600080fd5b60008060408385031215614ef657600080fd5b614eff83614ed2565b9150614f0d60208401614ed2565b90509250929050565b600080600060608486031215614f2b57600080fd5b8335614f3681614c3d565b9250614f4460208501614d79565b9150614f5260408501614d79565b90509250925092565b60008060208385031215614f6e57600080fd5b823567ffffffffffffffff80821115614f8657600080fd5b818501915085601f830112614f9a57600080fd5b813581811115614fa957600080fd5b8660208260051b8501011115614fbe57600080fd5b60209290920196919550909350505050565b604080825283519082018190526000906020906060840190828701845b8281101561500c57815160060b84529284019290840190600101614fed565b5050508381038285015284518082528583019183019060005b8181101561504a5783516001600160a01b031683529284019291840191600101615025565b5090979650505050505050565b60008060006060848603121561506c57600080fd5b61507584614d67565b9250614f4460208501614d67565b6000806040838503121561509657600080fd5b61509f83614d67565b9150614f0d60208401614d67565b6000602082840312156150bf57600080fd5b612cdd82614d67565b6000602082840312156150da57600080fd5b8135612cdd81614c3d565b634e487b7160e01b600052601260045260246000fd5b600060ff83168061510e5761510e6150e5565b8060ff84160691505092915050565b634e487b7160e01b600052601160045260246000fd5b60008160020b627fffff1981141561514d5761514d61511d565b60000392915050565b60008083128015600160ff1b8501841216156151745761517461511d565b6001600160ff1b038401831381161561518f5761518f61511d565b50500390565b600082198211156151a8576151a861511d565b500190565b600080821280156001600160ff1b03849003851316156151cf576151cf61511d565b600160ff1b83900384128116156151e8576151e861511d565b50500190565b60006001600160801b038083168185168083038211156152105761521061511d565b01949350505050565b600081600f0b60016001607f1b031981141561514d5761514d61511d565b60006001600160801b03838116908316818110156152575761525761511d565b039392505050565b81835281816020850137506000828201602090810191909152601f909101601f19169091010190565b8481528360208201526060604082015260006152a860608301848661525f565b9695505050505050565b6000602082840312156152c457600080fd5b8151612cdd81614c3d565b634e487b7160e01b600052603260045260246000fd5b6000825160005b8181101561530657602081860181015185830152016152ec565b81811115615315576000828501525b509190910192915050565b60006020828403121561533257600080fd5b8151612cdd81614c55565b60006020828403121561534f57600080fd5b5051919050565b634e487b7160e01b600052604160045260246000fd5b60008261537b5761537b6150e5565b500490565b600081600f0b83600f0b600082128260016001607f1b03038213811516156153aa576153aa61511d565b8260016001607f1b03190382128116156153c6576153c661511d565b50019392505050565b600081600f0b83600f0b600081128160016001607f1b0319018312811516156153fa576153fa61511d565b8160016001607f1b030183138116156154155761541561511d565b509003939250505056fea264697066735822122006d2491eeab3773d9600b41f29264e346ad65f8e5d3c5592063b29ea72d1bd5464736f6c634300080c0033",
    "linkReferences": {}
  },
  "methodIdentifiers": {
    "burn(int24,int24,uint128)": "a34123a7",
    "collect(address,int24,int24,uint128,uint128)": "4f1eb3d8",
    "collectProtocol(address,uint128,uint128)": "85b66729",
    "factory()": "c45a0155",
    "fee()": "ddca3f43",
    "feeGrowthGlobal0X128()": "f3058399",
    "feeGrowthGlobal1X128()": "46141319",
    "flash(address,uint256,uint256,bytes)": "490e6cbc",
    "increaseObservationCardinalityNext(uint16)": "32148f67",
    "initialize(uint160)": "f637731d",
    "liquidity()": "1a686502",
    "maxLiquidityPerTick()": "70cf754a",
    "mint(address,int24,int24,uint128,bytes)": "3c8a7d8d",
    "observations(uint256)": "252c09d7",
    "observe(uint32[])": "883bdbfd",
    "positions(bytes32)": "514ea4bf",
    "protocolFees()": "1ad8b03b",
    "setFeeProtocol(uint8,uint8)": "8206a4d1",
    "slot0()": "3850c7bd",
    "snapshotCumulativesInside(int24,int24)": "a38807f2",
    "swap(address,bool,int256,uint160,bytes)": "128acb08",
    "tickBitmap(int16)": "5339c296",
    "tickSpacing()": "d0c93a7c",
    "ticks(int24)": "f30dba93",
    "token0()": "0dfe1681",
    "token1()": "d21220a7"
  },
  "id": 2
}