{
  "abi": [
    {
      "inputs": [
        {
          "internalType": "address",
          "name": "targetApp_",
          "type": "address"
        },
        {
          "internalType": "address",
          "name": "gasContract_",
          "type": "address"
        },
        {
          "internalType": "uint256",
          "name": "chainId_",
          "type": "uint256"
        },
        {
          "internalType": "string",
          "name": "chainIdString_",
          "type": "string"
        },
        {
          "internalType": "uint256",
          "name": "gasNeeded_",
          "type": "uint256"
        }
      ],
      "stateMutability": "nonpayable",
      "type": "constructor"
    },
    {
      "inputs": [],
      "name": "NotEnoughGasFee",
      "type": "error"
    },
    {
      "inputs": [],
      "name": "OnlyOwner",
      "type": "error"
    },
    {
      "inputs": [
        {
          "internalType": "address",
          "name": "",
          "type": "address"
        },
        {
          "internalType": "bytes",
          "name": "",
          "type": "bytes"
        }
      ],
      "name": "PeekerReverted",
      "type": "error"
    },
    {
      "anonymous": false,
      "inputs": [
        {
          "indexed": false,
          "internalType": "Suave.BidId",
          "name": "newKey",
          "type": "bytes16"
        }
      ],
      "name": "UpdateKey",
      "type": "event"
    },
    {
      "inputs": [],
      "name": "chainId",
      "outputs": [
        {
          "internalType": "uint256",
          "name": "",
          "type": "uint256"
        }
      ],
      "stateMutability": "view",
      "type": "function"
    },
    {
      "inputs": [],
      "name": "chainIdString",
      "outputs": [
        {
          "internalType": "string",
          "name": "",
          "type": "string"
        }
      ],
      "stateMutability": "view",
      "type": "function"
    },
    {
      "inputs": [],
      "name": "gasContract",
      "outputs": [
        {
          "internalType": "address",
          "name": "",
          "type": "address"
        }
      ],
      "stateMutability": "view",
      "type": "function"
    },
    {
      "inputs": [],
      "name": "gasNeeded",
      "outputs": [
        {
          "internalType": "uint256",
          "name": "",
          "type": "uint256"
        }
      ],
      "stateMutability": "view",
      "type": "function"
    },
    {
      "inputs": [
        {
          "internalType": "address",
          "name": "user",
          "type": "address"
        },
        {
          "internalType": "address",
          "name": "permittedSuapp",
          "type": "address"
        },
        {
          "internalType": "uint256",
          "name": "deadline",
          "type": "uint256"
        },
        {
          "internalType": "uint8",
          "name": "v",
          "type": "uint8"
        },
        {
          "internalType": "bytes32",
          "name": "r",
          "type": "bytes32"
        },
        {
          "internalType": "bytes32",
          "name": "s",
          "type": "bytes32"
        }
      ],
      "name": "newPokeBid",
      "outputs": [
        {
          "internalType": "bytes",
          "name": "",
          "type": "bytes"
        }
      ],
      "stateMutability": "payable",
      "type": "function"
    },
    {
      "inputs": [],
      "name": "owner",
      "outputs": [
        {
          "internalType": "address",
          "name": "",
          "type": "address"
        }
      ],
      "stateMutability": "view",
      "type": "function"
    },
    {
      "inputs": [
        {
          "internalType": "uint256",
          "name": "keyNonce_",
          "type": "uint256"
        }
      ],
      "name": "setSigningKey",
      "outputs": [
        {
          "internalType": "bytes",
          "name": "",
          "type": "bytes"
        }
      ],
      "stateMutability": "view",
      "type": "function"
    },
    {
      "inputs": [],
      "name": "targetApp",
      "outputs": [
        {
          "internalType": "address",
          "name": "",
          "type": "address"
        }
      ],
      "stateMutability": "view",
      "type": "function"
    },
    {
      "inputs": [
        {
          "internalType": "uint256",
          "name": "gasNeeded_",
          "type": "uint256"
        }
      ],
      "name": "updateGasNeeded",
      "outputs": [],
      "stateMutability": "nonpayable",
      "type": "function"
    },
    {
      "inputs": [
        {
          "internalType": "Suave.BidId",
          "name": "signingKeyBid_",
          "type": "bytes16"
        },
        {
          "internalType": "uint256",
          "name": "keyNonce_",
          "type": "uint256"
        }
      ],
      "name": "updateKeyCallback",
      "outputs": [],
      "stateMutability": "nonpayable",
      "type": "function"
    },
    {
      "inputs": [
        {
          "internalType": "uint256",
          "name": "keyNonce_",
          "type": "uint256"
        }
      ],
      "name": "updateKeyNonce",
      "outputs": [],
      "stateMutability": "nonpayable",
      "type": "function"
    },
    {
      "inputs": [],
      "name": "updateNonceCallback",
      "outputs": [],
      "stateMutability": "nonpayable",
      "type": "function"
    }
  ],
  "bytecode": {
    "object": "0x60806040523480156200001157600080fd5b5060405162001700380380620017008339810160408190526200003491620000c3565b60028054336001600160a01b0319918216179091556000805482166001600160a01b0388811691909117909155600180549092169086161790556005839055600462000081838262000262565b50600655506200032e92505050565b80516001600160a01b0381168114620000a857600080fd5b919050565b634e487b7160e01b600052604160045260246000fd5b600080600080600060a08688031215620000dc57600080fd5b620000e78662000090565b94506020620000f881880162000090565b6040880151606089015191965094506001600160401b03808211156200011d57600080fd5b818901915089601f8301126200013257600080fd5b815181811115620001475762000147620000ad565b604051601f8201601f19908116603f01168101908382118183101715620001725762000172620000ad565b816040528281528c868487010111156200018b57600080fd5b600093505b82841015620001af578484018601518185018701529285019262000190565b6000868483010152809750505050505050608086015190509295509295909350565b600181811c90821680620001e657607f821691505b6020821081036200020757634e487b7160e01b600052602260045260246000fd5b50919050565b601f8211156200025d576000816000526020600020601f850160051c81016020861015620002385750805b601f850160051c820191505b81811015620002595782815560010162000244565b5050505b505050565b81516001600160401b038111156200027e576200027e620000ad565b62000296816200028f8454620001d1565b846200020d565b602080601f831160018114620002ce5760008415620002b55750858301515b600019600386901b1c1916600185901b17855562000259565b600085815260208120601f198616915b82811015620002ff57888601518255948401946001909101908401620002de565b50858210156200031e5787850151600019600388901b60f8161c191681555b5050505050600190811b01905550565b6113c2806200033e6000396000f3fe6080604052600436106100a75760003560e01c8063853a6a3311610064578063853a6a33146101915780638da5cb5b146101a45780639a8a0592146101c4578063ae796f5c146101da578063c4d1ad0a146101fa578063f15431301461021a57600080fd5b80630ad53499146100ac5780630b5a4859146100e95780630d64c35d1461011657806335059b511461012b5780633691bfdc1461014f5780634295eaa614610171575b600080fd5b3480156100b857600080fd5b506000546100cc906001600160a01b031681565b6040516001600160a01b0390911681526020015b60405180910390f35b3480156100f557600080fd5b50610109610104366004610d51565b61022f565b6040516100e09190610dba565b34801561012257600080fd5b50610109610394565b34801561013757600080fd5b5061014160065481565b6040519081526020016100e0565b34801561015b57600080fd5b5061016f61016a366004610de6565b610422565b005b34801561017d57600080fd5b5061016f61018c366004610d51565b61047b565b61010961019f366004610e27565b6104ab565b3480156101b057600080fd5b506002546100cc906001600160a01b031681565b3480156101d057600080fd5b5061014160055481565b3480156101e657600080fd5b5061016f6101f5366004610d51565b6106d4565b34801561020657600080fd5b506001546100cc906001600160a01b031681565b34801561022657600080fd5b5061016f610704565b6002546060906001600160a01b0316331461025d57604051635fc483c560e01b815260040160405180910390fd5b61026561071b565b61026e57600080fd5b60006102786107a4565b604080516001808252818301909252919250600091906020808301908036833701905050905030816000815181106102b2576102b2610ea8565b60200260200101906001600160a01b031690816001600160a01b0316815250506000610304600a83846040518060400160405280600b81526020016a29bab0bb32a9b4b3b732b960a91b81525061083c565b90506103348160000151604051806040016040528060078152602001666b65794461746160c81b81525085610939565b8051604080516001600160801b031990921660208301528101869052630da46ff760e21b9060600160408051601f198184030181529082905261037a9291602001610ebe565b60405160208183030381529060405293505050505b919050565b600480546103a190610eef565b80601f01602080910402602001604051908101604052809291908181526020018280546103cd90610eef565b801561041a5780601f106103ef5761010080835404028352916020019161041a565b820191906000526020600020905b8154815290600101906020018083116103fd57829003601f168201915b505050505081565b60038054608084811c6001600160801b03199283161792839055600784905560405192901b1681527ffddc6ca1bd3756efd91970931e6053cfa455d0e634eb927d9c79e082ff63e5af9060200160405180910390a15050565b6002546001600160a01b031633146104a657604051635fc483c560e01b815260040160405180910390fd5b600755565b60606104b561071b565b6104be57600080fd5b60006104c86109eb565b90506000816006546104da9190610f3f565b9050348110156104fd5760405163025c8a2560e41b815260040160405180910390fd5b6040516001600160a01b03808b166024830152891660448201526064810188905260ff8716608482015260a4810186905260c4810185905260009060e40160408051601f198184030181529190526020810180516001600160e01b031663f6aa43f160e01b1790529050600060606003546040805180820190915260078152666b65794461746160c81b602082015291925060009161059f9160801b90610a4b565b9050600061063883600480546105b490610eef565b80601f01602080910402602001604051908101604052809291908181526020018280546105e090610eef565b801561062d5780601f106106025761010080835404028352916020019161062d565b820191906000526020600020905b81548152906001019060200180831161061057829003601f168201915b505050505084610afe565b905061069f604051806040016040528060068152602001651c9c18d55c9b60d21b815250604051806040016040528060068152602001651b595d1a1bd960d21b81525060405180604001604052806006815260200165706172616d7360d01b815250610bcb565b50604051630f15431360e41b602082015260240160405160208183030381529060405296505050505050509695505050505050565b6002546001600160a01b031633146106ff57604051635fc483c560e01b815260040160405180910390fd5b600655565b6007805490600061071483610f56565b9190505550565b6040516000908190819063420100009082818181855afa9150503d8060008114610761576040519150601f19603f3d011682016040523d82523d6000602084013e610766565b606091505b50915091508161079a576342010000816040516375fff46760e01b8152600401610791929190610f6f565b60405180910390fd5b6020015192915050565b6040805160008082526020820192839052606092909182916342010001916107cb91610f93565b600060405180830381855afa9150503d8060008114610806576040519150601f19603f3d011682016040523d82523d6000602084013e61080b565b606091505b509150915081610836576342010001816040516375fff46760e01b8152600401610791929190610f6f565b92915050565b6040805160c0810182526000808252602082018190529181019190915260608082018190526080820181905260a082015260008063420300006001600160a01b0316878787876040516020016108959493929190610ff4565b60408051601f19818403018152908290526108af91610f93565b600060405180830381855afa9150503d80600081146108ea576040519150601f19603f3d011682016040523d82523d6000602084013e6108ef565b606091505b50915091508161091a576342030000816040516375fff46760e01b8152600401610791929190610f6f565b8080602001905181019061092e91906111a7565b979650505050505050565b60008063420200006001600160a01b031685858560405160200161095f9392919061128f565b60408051601f198184030181529082905261097991610f93565b600060405180830381855afa9150503d80600081146109b4576040519150601f19603f3d011682016040523d82523d6000602084013e6109b9565b606091505b5091509150816109e4576342020000816040516375fff46760e01b8152600401610791929190610f6f565b5050505050565b6001546040805160048152602481019091526020810180516001600160e01b031663455259cb60e01b1790526000918291610a2f916001600160a01b031690610c92565b905080806020019051810190610a4591906112ce565b91505090565b606060008063420200016001600160a01b03168585604051602001610a719291906112e7565b60408051601f1981840301815290829052610a8b91610f93565b600060405180830381855afa9150503d8060008114610ac6576040519150601f19603f3d011682016040523d82523d6000602084013e610acb565b606091505b509150915081610af6576342020001816040516375fff46760e01b8152600401610791929190610f6f565b949350505050565b606060008063401000016001600160a01b0316868686604051602001610b269392919061130a565b60408051601f1981840301815290829052610b4091610f93565b600060405180830381855afa9150503d8060008114610b7b576040519150601f19603f3d011682016040523d82523d6000602084013e610b80565b606091505b509150915081610bab576340100001816040516375fff46760e01b8152600401610791929190610f6f565b80806020019051810190610bbf9190611343565b925050505b9392505050565b6060610bd561071b565b610bde57600080fd5b60008063430000016001600160a01b0316868686604051602001610c049392919061130a565b60408051601f1981840301815290829052610c1e91610f93565b600060405180830381855afa9150503d8060008114610c59576040519150601f19603f3d011682016040523d82523d6000602084013e610c5e565b606091505b509150915081610c89576343000001816040516375fff46760e01b8152600401610791929190610f6f565b95945050505050565b606060008063421000036001600160a01b03168585604051602001610cb8929190610f6f565b60408051601f1981840301815290829052610cd291610f93565b600060405180830381855afa9150503d8060008114610d0d576040519150601f19603f3d011682016040523d82523d6000602084013e610d12565b606091505b509150915081610d3d576342100003816040516375fff46760e01b8152600401610791929190610f6f565b80806020019051810190610c899190611343565b600060208284031215610d6357600080fd5b5035919050565b60005b83811015610d85578181015183820152602001610d6d565b50506000910152565b60008151808452610da6816020860160208601610d6a565b601f01601f19169290920160200192915050565b602081526000610bc46020830184610d8e565b6001600160801b031981168114610de357600080fd5b50565b60008060408385031215610df957600080fd5b8235610e0481610dcd565b946020939093013593505050565b6001600160a01b0381168114610de357600080fd5b60008060008060008060c08789031215610e4057600080fd5b8635610e4b81610e12565b95506020870135610e5b81610e12565b945060408701359350606087013560ff81168114610e7857600080fd5b9598949750929560808101359460a0909101359350915050565b634e487b7160e01b600052604160045260246000fd5b634e487b7160e01b600052603260045260246000fd5b6001600160e01b0319831681528151600090610ee1816004850160208701610d6a565b919091016004019392505050565b600181811c90821680610f0357607f821691505b602082108103610f2357634e487b7160e01b600052602260045260246000fd5b50919050565b634e487b7160e01b600052601160045260246000fd5b808202811582820484141761083657610836610f29565b600060018201610f6857610f68610f29565b5060010190565b6001600160a01b0383168152604060208201819052600090610af690830184610d8e565b60008251610fa5818460208701610d6a565b9190910192915050565b60008151808452602080850194506020840160005b83811015610fe95781516001600160a01b031687529582019590820190600101610fc4565b509495945050505050565b67ffffffffffffffff851681526080602082015260006110176080830186610faf565b82810360408401526110298186610faf565b9050828103606084015261092e8185610d8e565b60405160c0810167ffffffffffffffff8111828210171561106057611060610e92565b60405290565b604051601f8201601f1916810167ffffffffffffffff8111828210171561108f5761108f610e92565b604052919050565b805161038f81610dcd565b805167ffffffffffffffff8116811461038f57600080fd5b600082601f8301126110cb57600080fd5b8151602067ffffffffffffffff8211156110e7576110e7610e92565b8160051b6110f6828201611066565b928352848101820192828101908785111561111057600080fd5b83870192505b8483101561092e57825161112981610e12565b82529183019190830190611116565b600067ffffffffffffffff83111561115257611152610e92565b611165601f8401601f1916602001611066565b905082815283838301111561117957600080fd5b610bc4836020830184610d6a565b600082601f83011261119857600080fd5b610bc483835160208501611138565b6000602082840312156111b957600080fd5b815167ffffffffffffffff808211156111d157600080fd5b9083019060c082860312156111e557600080fd5b6111ed61103d565b6111f683611097565b815261120460208401611097565b6020820152611215604084016110a2565b604082015260608301518281111561122c57600080fd5b611238878286016110ba565b60608301525060808301518281111561125057600080fd5b61125c878286016110ba565b60808301525060a08301518281111561127457600080fd5b61128087828601611187565b60a08301525095945050505050565b6001600160801b0319841681526060602082015260006112b26060830185610d8e565b82810360408401526112c48185610d8e565b9695505050505050565b6000602082840312156112e057600080fd5b5051919050565b6001600160801b031983168152604060208201526000610af66040830184610d8e565b60608152600061131d6060830186610d8e565b828103602084015261132f8186610d8e565b905082810360408401526112c48185610d8e565b60006020828403121561135557600080fd5b815167ffffffffffffffff81111561136c57600080fd5b8201601f8101841361137d57600080fd5b610af68482516020840161113856fea2646970667358221220c228e40583862e202b114374dbd45bbd21cf45584a036f795ef2ae830dd78a5664736f6c63430008160033",
    "linkReferences": {}
  },
  "methodIdentifiers": {
    "chainId()": "9a8a0592",
    "chainIdString()": "0d64c35d",
    "gasContract()": "c4d1ad0a",
    "gasNeeded()": "35059b51",
    "newPokeBid(address,address,uint256,uint8,bytes32,bytes32)": "853a6a33",
    "owner()": "8da5cb5b",
    "setSigningKey(uint256)": "0b5a4859",
    "targetApp()": "0ad53499",
    "updateGasNeeded(uint256)": "ae796f5c",
    "updateKeyCallback(bytes16,uint256)": "3691bfdc",
    "updateKeyNonce(uint256)": "4295eaa6",
    "updateNonceCallback()": "f1543130"
  },
  "id": 20
}