{
  "abi": [
    {
      "inputs": [],
      "name": "parameters",
      "outputs": [
        {
          "internalType": "address",
          "name": "factory",
          "type": "address"
        },
        {
          "internalType": "address",
          "name": "token0",
          "type": "address"
        },
        {
          "internalType": "address",
          "name": "token1",
          "type": "address"
        },
        {
          "internalType": "uint24",
          "name": "fee",
          "type": "uint24"
        },
        {
          "internalType": "int24",
          "name": "tickSpacing",
          "type": "int24"
        }
      ],
      "stateMutability": "view",
      "type": "function"
    }
  ],
  "bytecode": {
    "object": "0x6080604052348015600f57600080fd5b5060df8061001e6000396000f3fe6080604052348015600f57600080fd5b506004361060285760003560e01c80638903573014602d575b600080fd5b600054600154600280546067936001600160a01b03908116938116929082169162ffffff600160a01b82041691600160b81b909104900b85565b604080516001600160a01b0396871681529486166020860152929094168383015262ffffff16606083015260029290920b608082015290519081900360a00190f3fea2646970667358221220160b2482f290185254de2ac07e295d7444014fc399b7fc37cee0604e8c488bab64736f6c634300080c0033",
    "linkReferences": {}
  },
  "methodIdentifiers": {
    "parameters()": "89035730"
  },
  "id": 3
}