{
  "abi": [
    {
      "inputs": [
        {
          "internalType": "address",
          "name": "_factory",
          "type": "address"
        },
        {
          "internalType": "address",
          "name": "_WETH9",
          "type": "address"
        },
        {
          "internalType": "address",
          "name": "_pool",
          "type": "address"
        }
      ],
      "stateMutability": "nonpayable",
      "type": "constructor"
    },
    {
      "inputs": [],
      "name": "WETH9",
      "outputs": [
        {
          "internalType": "address",
          "name": "",
          "type": "address"
        }
      ],
      "stateMutability": "view",
      "type": "function"
    },
    {
      "inputs": [
        {
          "components": [
            {
              "internalType": "bytes",
              "name": "path",
              "type": "bytes"
            },
            {
              "internalType": "address",
              "name": "recipient",
              "type": "address"
            },
            {
              "internalType": "uint256",
              "name": "deadline",
              "type": "uint256"
            },
            {
              "internalType": "uint256",
              "name": "amountIn",
              "type": "uint256"
            },
            {
              "internalType": "uint256",
              "name": "amountOutMinimum",
              "type": "uint256"
            }
          ],
          "internalType": "struct ISwapRouterModified.ExactInputParams",
          "name": "params",
          "type": "tuple"
        }
      ],
      "name": "exactInput",
      "outputs": [
        {
          "internalType": "uint256",
          "name": "amountOut",
          "type": "uint256"
        }
      ],
      "stateMutability": "payable",
      "type": "function"
    },
    {
      "inputs": [
        {
          "components": [
            {
              "internalType": "address",
              "name": "tokenIn",
              "type": "address"
            },
            {
              "internalType": "address",
              "name": "tokenOut",
              "type": "address"
            },
            {
              "internalType": "uint24",
              "name": "fee",
              "type": "uint24"
            },
            {
              "internalType": "address",
              "name": "recipient",
              "type": "address"
            },
            {
              "internalType": "uint256",
              "name": "deadline",
              "type": "uint256"
            },
            {
              "internalType": "uint256",
              "name": "amountIn",
              "type": "uint256"
            },
            {
              "internalType": "uint256",
              "name": "amountOutMinimum",
              "type": "uint256"
            },
            {
              "internalType": "uint160",
              "name": "sqrtPriceLimitX96",
              "type": "uint160"
            }
          ],
          "internalType": "struct ISwapRouterModified.ExactInputSingleParams",
          "name": "params",
          "type": "tuple"
        }
      ],
      "name": "exactInputSingle",
      "outputs": [
        {
          "internalType": "uint256",
          "name": "amountOut",
          "type": "uint256"
        }
      ],
      "stateMutability": "payable",
      "type": "function"
    },
    {
      "inputs": [
        {
          "components": [
            {
              "internalType": "bytes",
              "name": "path",
              "type": "bytes"
            },
            {
              "internalType": "address",
              "name": "recipient",
              "type": "address"
            },
            {
              "internalType": "uint256",
              "name": "deadline",
              "type": "uint256"
            },
            {
              "internalType": "uint256",
              "name": "amountOut",
              "type": "uint256"
            },
            {
              "internalType": "uint256",
              "name": "amountInMaximum",
              "type": "uint256"
            }
          ],
          "internalType": "struct ISwapRouterModified.ExactOutputParams",
          "name": "params",
          "type": "tuple"
        }
      ],
      "name": "exactOutput",
      "outputs": [
        {
          "internalType": "uint256",
          "name": "amountIn",
          "type": "uint256"
        }
      ],
      "stateMutability": "payable",
      "type": "function"
    },
    {
      "inputs": [
        {
          "components": [
            {
              "internalType": "address",
              "name": "tokenIn",
              "type": "address"
            },
            {
              "internalType": "address",
              "name": "tokenOut",
              "type": "address"
            },
            {
              "internalType": "uint24",
              "name": "fee",
              "type": "uint24"
            },
            {
              "internalType": "address",
              "name": "recipient",
              "type": "address"
            },
            {
              "internalType": "uint256",
              "name": "deadline",
              "type": "uint256"
            },
            {
              "internalType": "uint256",
              "name": "amountOut",
              "type": "uint256"
            },
            {
              "internalType": "uint256",
              "name": "amountInMaximum",
              "type": "uint256"
            },
            {
              "internalType": "uint160",
              "name": "sqrtPriceLimitX96",
              "type": "uint160"
            }
          ],
          "internalType": "struct ISwapRouterModified.ExactOutputSingleParams",
          "name": "params",
          "type": "tuple"
        }
      ],
      "name": "exactOutputSingle",
      "outputs": [
        {
          "internalType": "uint256",
          "name": "amountIn",
          "type": "uint256"
        }
      ],
      "stateMutability": "payable",
      "type": "function"
    },
    {
      "inputs": [],
      "name": "factory",
      "outputs": [
        {
          "internalType": "address",
          "name": "",
          "type": "address"
        }
      ],
      "stateMutability": "view",
      "type": "function"
    },
    {
      "inputs": [
        {
          "internalType": "bytes[]",
          "name": "data",
          "type": "bytes[]"
        }
      ],
      "name": "multicall",
      "outputs": [
        {
          "internalType": "bytes[]",
          "name": "results",
          "type": "bytes[]"
        }
      ],
      "stateMutability": "payable",
      "type": "function"
    },
    {
      "inputs": [],
      "name": "refundETH",
      "outputs": [],
      "stateMutability": "payable",
      "type": "function"
    },
    {
      "inputs": [
        {
          "internalType": "address",
          "name": "token",
          "type": "address"
        },
        {
          "internalType": "uint256",
          "name": "value",
          "type": "uint256"
        },
        {
          "internalType": "uint256",
          "name": "deadline",
          "type": "uint256"
        },
        {
          "internalType": "uint8",
          "name": "v",
          "type": "uint8"
        },
        {
          "internalType": "bytes32",
          "name": "r",
          "type": "bytes32"
        },
        {
          "internalType": "bytes32",
          "name": "s",
          "type": "bytes32"
        }
      ],
      "name": "selfPermit",
      "outputs": [],
      "stateMutability": "payable",
      "type": "function"
    },
    {
      "inputs": [
        {
          "internalType": "address",
          "name": "token",
          "type": "address"
        },
        {
          "internalType": "uint256",
          "name": "nonce",
          "type": "uint256"
        },
        {
          "internalType": "uint256",
          "name": "expiry",
          "type": "uint256"
        },
        {
          "internalType": "uint8",
          "name": "v",
          "type": "uint8"
        },
        {
          "internalType": "bytes32",
          "name": "r",
          "type": "bytes32"
        },
        {
          "internalType": "bytes32",
          "name": "s",
          "type": "bytes32"
        }
      ],
      "name": "selfPermitAllowed",
      "outputs": [],
      "stateMutability": "payable",
      "type": "function"
    },
    {
      "inputs": [
        {
          "internalType": "address",
          "name": "token",
          "type": "address"
        },
        {
          "internalType": "uint256",
          "name": "nonce",
          "type": "uint256"
        },
        {
          "internalType": "uint256",
          "name": "expiry",
          "type": "uint256"
        },
        {
          "internalType": "uint8",
          "name": "v",
          "type": "uint8"
        },
        {
          "internalType": "bytes32",
          "name": "r",
          "type": "bytes32"
        },
        {
          "internalType": "bytes32",
          "name": "s",
          "type": "bytes32"
        }
      ],
      "name": "selfPermitAllowedIfNecessary",
      "outputs": [],
      "stateMutability": "payable",
      "type": "function"
    },
    {
      "inputs": [
        {
          "internalType": "address",
          "name": "token",
          "type": "address"
        },
        {
          "internalType": "uint256",
          "name": "value",
          "type": "uint256"
        },
        {
          "internalType": "uint256",
          "name": "deadline",
          "type": "uint256"
        },
        {
          "internalType": "uint8",
          "name": "v",
          "type": "uint8"
        },
        {
          "internalType": "bytes32",
          "name": "r",
          "type": "bytes32"
        },
        {
          "internalType": "bytes32",
          "name": "s",
          "type": "bytes32"
        }
      ],
      "name": "selfPermitIfNecessary",
      "outputs": [],
      "stateMutability": "payable",
      "type": "function"
    },
    {
      "inputs": [
        {
          "internalType": "address",
          "name": "token",
          "type": "address"
        },
        {
          "internalType": "uint256",
          "name": "amountMinimum",
          "type": "uint256"
        },
        {
          "internalType": "address",
          "name": "recipient",
          "type": "address"
        }
      ],
      "name": "sweepToken",
      "outputs": [],
      "stateMutability": "payable",
      "type": "function"
    },
    {
      "inputs": [
        {
          "internalType": "address",
          "name": "token",
          "type": "address"
        },
        {
          "internalType": "uint256",
          "name": "amountMinimum",
          "type": "uint256"
        },
        {
          "internalType": "address",
          "name": "recipient",
          "type": "address"
        },
        {
          "internalType": "uint256",
          "name": "feeBips",
          "type": "uint256"
        },
        {
          "internalType": "address",
          "name": "feeRecipient",
          "type": "address"
        }
      ],
      "name": "sweepTokenWithFee",
      "outputs": [],
      "stateMutability": "payable",
      "type": "function"
    },
    {
      "inputs": [
        {
          "internalType": "int256",
          "name": "amount0Delta",
          "type": "int256"
        },
        {
          "internalType": "int256",
          "name": "amount1Delta",
          "type": "int256"
        },
        {
          "internalType": "bytes",
          "name": "_data",
          "type": "bytes"
        }
      ],
      "name": "uniswapV3SwapCallback",
      "outputs": [],
      "stateMutability": "nonpayable",
      "type": "function"
    },
    {
      "inputs": [
        {
          "internalType": "uint256",
          "name": "amountMinimum",
          "type": "uint256"
        },
        {
          "internalType": "address",
          "name": "recipient",
          "type": "address"
        }
      ],
      "name": "unwrapWETH9",
      "outputs": [],
      "stateMutability": "payable",
      "type": "function"
    },
    {
      "inputs": [
        {
          "internalType": "uint256",
          "name": "amountMinimum",
          "type": "uint256"
        },
        {
          "internalType": "address",
          "name": "recipient",
          "type": "address"
        },
        {
          "internalType": "uint256",
          "name": "feeBips",
          "type": "uint256"
        },
        {
          "internalType": "address",
          "name": "feeRecipient",
          "type": "address"
        }
      ],
      "name": "unwrapWETH9WithFee",
      "outputs": [],
      "stateMutability": "payable",
      "type": "function"
    },
    {
      "stateMutability": "payable",
      "type": "receive"
    }
  ],
  "bytecode": {
    "object": "0x60c06040526000196000553480156200001757600080fd5b5060405162002584380380620025848339810160408190526200003a9162000086565b6001600160a01b0392831660805290821660a052600180546001600160a01b03191691909216179055620000d0565b80516001600160a01b03811681146200008157600080fd5b919050565b6000806000606084860312156200009c57600080fd5b620000a78462000069565b9250620000b76020850162000069565b9150620000c76040850162000069565b90509250925092565b60805160a0516124566200012e60003960008181610112015281816101dd01528181610507015281816105dd0152818161068201528181610758015281816115d70152818161161d01526116b20152600061029501526124566000f3fe6080604052600436106101025760003560e01c8063c04b8d5911610095578063df2ab5bb11610064578063df2ab5bb146102ca578063e0e189a0146102dd578063f28c0498146102f0578063f3995c6714610303578063fa461e331461031657600080fd5b8063c04b8d591461025d578063c2e3140a14610270578063c45a015514610283578063db3e2198146102b757600080fd5b80634aa4a4fc116100d15780634aa4a4fc146101cb5780639b2c0a3714610217578063a4a78f0c1461022a578063ac9650d81461023d57600080fd5b806312210e8a14610177578063414bf3891461017f5780634659a494146101a557806349404b7c146101b857600080fd5b3661017257336001600160a01b037f000000000000000000000000000000000000000000000000000000000000000016146101705760405162461bcd60e51b81526020600482015260096024820152684e6f7420574554483960b81b60448201526064015b60405180910390fd5b005b600080fd5b610170610336565b61019261018d366004611a9d565b610348565b6040519081526020015b60405180910390f35b6101706101b3366004611ad9565b61045a565b6101706101c6366004611b3b565b6104ef565b3480156101d757600080fd5b506101ff7f000000000000000000000000000000000000000000000000000000000000000081565b6040516001600160a01b03909116815260200161019c565b610170610225366004611b6b565b610650565b610170610238366004611ad9565b610805565b61025061024b366004611bb5565b61088b565b60405161019c9190611c82565b61019261026b366004611dd2565b6109e3565b61017061027e366004611ad9565b610af1565b34801561028f57600080fd5b506101ff7f000000000000000000000000000000000000000000000000000000000000000081565b6101926102c5366004611a9d565b610b75565b6101706102d8366004611e76565b610c8f565b6101706102eb366004611eb8565b610d58565b6101926102fe366004611f17565b610e73565b610170610311366004611ad9565b610f5c565b34801561032257600080fd5b50610170610331366004611f52565b610fb3565b4715610346576103463347611099565b565b600060808201358042111561036f5760405162461bcd60e51b815260040161016790611fd2565b61040860a08401356103876080860160608701611fff565b610398610100870160e08801611fff565b60408051808201909152806103b060208a018a611fff565b6103c060608b0160408c0161201c565b6103d060408c0160208d01611fff565b6040516020016103e293929190612041565b6040516020818303038152906040528152602001336001600160a01b031681525061113c565b91508260c001358210156104545760405162461bcd60e51b8152602060048201526013602482015272151bdbc81b1a5d1d1b19481c9958d95a5d9959606a1b6044820152606401610167565b50919050565b6040516323f2ebc360e21b815233600482015230602482015260448101869052606481018590526001608482015260ff841660a482015260c4810183905260e481018290526001600160a01b03871690638fcbaf0c90610104015b600060405180830381600087803b1580156104cf57600080fd5b505af11580156104e3573d6000803e3d6000fd5b50505050505050505050565b6040516370a0823160e01b81523060048201526000907f00000000000000000000000000000000000000000000000000000000000000006001600160a01b0316906370a0823190602401602060405180830381865afa158015610556573d6000803e3d6000fd5b505050506040513d601f19601f8201168201806040525081019061057a919061207c565b9050828110156105c15760405162461bcd60e51b8152602060048201526012602482015271496e73756666696369656e7420574554483960701b6044820152606401610167565b801561064b57604051632e1a7d4d60e01b8152600481018290527f00000000000000000000000000000000000000000000000000000000000000006001600160a01b031690632e1a7d4d90602401600060405180830381600087803b15801561062957600080fd5b505af115801561063d573d6000803e3d6000fd5b5050505061064b8282611099565b505050565b600082118015610661575060648211155b61066a57600080fd5b6040516370a0823160e01b81523060048201526000907f00000000000000000000000000000000000000000000000000000000000000006001600160a01b0316906370a0823190602401602060405180830381865afa1580156106d1573d6000803e3d6000fd5b505050506040513d601f19601f820116820180604052508101906106f5919061207c565b90508481101561073c5760405162461bcd60e51b8152602060048201526012602482015271496e73756666696369656e7420574554483960701b6044820152606401610167565b80156107fe57604051632e1a7d4d60e01b8152600481018290527f00000000000000000000000000000000000000000000000000000000000000006001600160a01b031690632e1a7d4d90602401600060405180830381600087803b1580156107a457600080fd5b505af11580156107b8573d6000803e3d6000fd5b50505050600061271084836107cd91906120ab565b6107d791906120ca565b905080156107e9576107e98382611099565b6107fc856107f783856120ec565b611099565b505b5050505050565b604051636eb1769f60e11b8152336004820152306024820152600019906001600160a01b0388169063dd62ed3e90604401602060405180830381865afa158015610853573d6000803e3d6000fd5b505050506040513d601f19601f82011682018060405250810190610877919061207c565b10156107fc576107fc86868686868661045a565b60608167ffffffffffffffff8111156108a6576108a6611ce4565b6040519080825280602002602001820160405280156108d957816020015b60608152602001906001900390816108c45790505b50905060005b828110156109dc57600080308686858181106108fd576108fd612103565b905060200281019061090f9190612119565b60405161091d929190612167565b600060405180830381855af49150503d8060008114610958576040519150601f19603f3d011682016040523d82523d6000602084013e61095d565b606091505b5091509150816109a95760448151101561097657600080fd5b600481019050808060200190518101906109909190612177565b60405162461bcd60e51b815260040161016791906121ee565b808484815181106109bc576109bc612103565b6020026020010181905250505080806109d490612201565b9150506108df565b5092915050565b60008160400151806109f24290565b1115610a105760405162461bcd60e51b815260040161016790611fd2565b335b6000610a21856000015161128c565b9050610a6d856060015182610a3a578660200151610a3c565b305b60006040518060400160405280610a568b600001516112c6565b8152602001876001600160a01b031681525061113c565b60608601528015610a8d578451309250610a86906112f2565b8552610a9a565b8460600151935050610aa0565b50610a12565b8360800151831015610aea5760405162461bcd60e51b8152602060048201526013602482015272151bdbc81b1a5d1d1b19481c9958d95a5d9959606a1b6044820152606401610167565b5050919050565b604051636eb1769f60e11b815233600482015230602482015285906001600160a01b0388169063dd62ed3e90604401602060405180830381865afa158015610b3d573d6000803e3d6000fd5b505050506040513d601f19601f82011682018060405250810190610b61919061207c565b10156107fc576107fc868686868686610f5c565b6000608082013580421115610b9c5760405162461bcd60e51b815260040161016790611fd2565b610c3860a0840135610bb46080860160608701611fff565b610bc5610100870160e08801611fff565b6040518060400160405280886020016020810190610be39190611fff565b610bf360608b0160408c0161201c565b610c0060208c018c611fff565b604051602001610c1293929190612041565b6040516020818303038152906040528152602001336001600160a01b031681525061131b565b91508260c00135821115610c835760405162461bcd60e51b8152602060048201526012602482015271151bdbc81b5d58da081c995c5d595cdd195960721b6044820152606401610167565b50600019600055919050565b6040516370a0823160e01b81523060048201526000906001600160a01b038516906370a0823190602401602060405180830381865afa158015610cd6573d6000803e3d6000fd5b505050506040513d601f19601f82011682018060405250810190610cfa919061207c565b905082811015610d415760405162461bcd60e51b815260206004820152601260248201527124b739bab33334b1b4b2b73a103a37b5b2b760711b6044820152606401610167565b8015610d5257610d528483836114a0565b50505050565b600082118015610d69575060648211155b610d7257600080fd5b6040516370a0823160e01b81523060048201526000906001600160a01b038716906370a0823190602401602060405180830381865afa158015610db9573d6000803e3d6000fd5b505050506040513d601f19601f82011682018060405250810190610ddd919061207c565b905084811015610e245760405162461bcd60e51b815260206004820152601260248201527124b739bab33334b1b4b2b73a103a37b5b2b760711b6044820152606401610167565b80156107fc576000612710610e3985846120ab565b610e4391906120ca565b90508015610e5657610e568784836114a0565b610e6a8786610e6584866120ec565b6114a0565b50505050505050565b6000604082013580421115610e9a5760405162461bcd60e51b815260040161016790611fd2565b610f0d6060840135610eb26040860160208701611fff565b6040805180820190915260009080610eca8980612119565b8080601f0160208091040260200160405190810160405280939291908181526020018383808284376000920191909152505050908252503360209091015261131b565b5060005491508260800135821115610c835760405162461bcd60e51b8152602060048201526012602482015271151bdbc81b5d58da081c995c5d595cdd195960721b6044820152606401610167565b60405163d505accf60e01b8152336004820152306024820152604481018690526064810185905260ff8416608482015260a4810183905260c481018290526001600160a01b0387169063d505accf9060e4016104b5565b6000841380610fc25750600083135b610fcb57600080fd5b6000610fd98284018461221a565b90506000806000610fed8460000151611599565b92509250925060008060008a1361101957846001600160a01b0316846001600160a01b03161089611030565b836001600160a01b0316856001600160a01b0316108a5b91509150811561104f5761104a85876020015133846115d5565b6104e3565b855161105a9061128c565b1561107f57855161106a906112f2565b8652611079813360008961131b565b506104e3565b806000819055508394506104e385876020015133846115d5565b604080516000808252602082019092526001600160a01b0384169083906040516110c391906122b4565b60006040518083038185875af1925050503d8060008114611100576040519150601f19603f3d011682016040523d82523d6000602084013e611105565b606091505b505090508061064b5760405162461bcd60e51b815260206004820152600360248201526253544560e81b6044820152606401610167565b60006001600160a01b038416611150573093505b60008060006111628560000151611599565b60015492955090935091506001600160a01b03808416818616109160009182911663128acb088b856111938f611755565b6001600160a01b038e16156111a8578d6111e1565b876111d1576111cc600173fffd8963efd1fc6a506488495d951d5263988d266122d0565b6111e1565b6111e16401000276a360016122f8565b8d6040516020016111f29190612323565b6040516020818303038152906040526040518663ffffffff1660e01b8152600401611221959493929190612360565b60408051808303816000875af115801561123f573d6000803e3d6000fd5b505050506040513d601f19601f8201168201806040525081019061126391906123a6565b91509150826112725781611274565b805b61127d906123ca565b9b9a5050505050505050505050565b600061129a600360146123e6565b60146112a76003826123e6565b6112b191906123e6565b6112bb91906123e6565b825110159050919050565b60606112ec600060146112da6003826123e6565b6112e491906123e6565b84919061176b565b92915050565b60606112ec611303600360146123e6565b61130f600360146123e6565b84516112e491906120ec565b60006001600160a01b03841661132f573093505b60008060006113418560000151611599565b60015492955090935091506001600160a01b03808516818516109160009182911663128acb088b856113728f611755565b61137b906123ca565b6001600160a01b038e1615611390578d6113c9565b876113b9576113b4600173fffd8963efd1fc6a506488495d951d5263988d266122d0565b6113c9565b6113c96401000276a360016122f8565b8d6040516020016113da9190612323565b6040516020818303038152906040526040518663ffffffff1660e01b8152600401611409959493929190612360565b60408051808303816000875af1158015611427573d6000803e3d6000fd5b505050506040513d601f19601f8201168201806040525081019061144b91906123a6565b915091506000836114655781611460846123ca565b61146f565b8261146f836123ca565b90985090506001600160a01b038a16600003611491578b811461149157600080fd5b50505050505050949350505050565b604080516001600160a01b038481166024830152604480830185905283518084039091018152606490920183526020820180516001600160e01b031663a9059cbb60e01b17905291516000928392908716916114fc91906122b4565b6000604051808303816000865af19150503d8060008114611539576040519150601f19603f3d011682016040523d82523d6000602084013e61153e565b606091505b509150915081801561156857508051158061156857508080602001905181019061156891906123fe565b6107fe5760405162461bcd60e51b815260206004820152600260248201526114d560f21b6044820152606401610167565b600080806115a78482611878565b92506115b48460146118dd565b90506115cc6115c5600360146123e6565b8590611878565b91509193909250565b7f00000000000000000000000000000000000000000000000000000000000000006001600160a01b0316846001600160a01b03161480156116165750804710155b15611729577f00000000000000000000000000000000000000000000000000000000000000006001600160a01b031663d0e30db0826040518263ffffffff1660e01b81526004016000604051808303818588803b15801561167657600080fd5b505af115801561168a573d6000803e3d6000fd5b505060405163a9059cbb60e01b81526001600160a01b038681166004830152602482018690527f000000000000000000000000000000000000000000000000000000000000000016935063a9059cbb925060440190506020604051808303816000875af11580156116ff573d6000803e3d6000fd5b505050506040513d601f19601f8201168201806040525081019061172391906123fe565b50610d52565b306001600160a01b03841603611749576117448483836114a0565b610d52565b610d5284848484611988565b6000600160ff1b821061176757600080fd5b5090565b60608161177981601f6123e6565b10156117b85760405162461bcd60e51b815260206004820152600e60248201526d736c6963655f6f766572666c6f7760901b6044820152606401610167565b6117c282846123e6565b845110156118065760405162461bcd60e51b8152602060048201526011602482015270736c6963655f6f75744f66426f756e647360781b6044820152606401610167565b606082158015611825576040519150600082526020820160405261186f565b6040519150601f8416801560200281840101858101878315602002848b0101015b8183101561185e578051835260209283019201611846565b5050858452601f01601f1916604052505b50949350505050565b60006118858260146123e6565b835110156118cd5760405162461bcd60e51b8152602060048201526015602482015274746f416464726573735f6f75744f66426f756e647360581b6044820152606401610167565b500160200151600160601b900490565b6000816118eb8160036123e6565b101561192d5760405162461bcd60e51b8152602060048201526011602482015270746f55696e7432345f6f766572666c6f7760781b6044820152606401610167565b6119388260036123e6565b8351101561197f5760405162461bcd60e51b8152602060048201526014602482015273746f55696e7432345f6f75744f66426f756e647360601b6044820152606401610167565b50016003015190565b604080516001600160a01b0385811660248301528481166044830152606480830185905283518084039091018152608490920183526020820180516001600160e01b03166323b872dd60e01b17905291516000928392908816916119ec91906122b4565b6000604051808303816000865af19150503d8060008114611a29576040519150601f19603f3d011682016040523d82523d6000602084013e611a2e565b606091505b5091509150818015611a58575080511580611a58575080806020019051810190611a5891906123fe565b6107fc5760405162461bcd60e51b815260206004820152600360248201526229aa2360e91b6044820152606401610167565b6000610100828403121561045457600080fd5b60006101008284031215611ab057600080fd5b611aba8383611a8a565b9392505050565b6001600160a01b0381168114611ad657600080fd5b50565b60008060008060008060c08789031215611af257600080fd5b8635611afd81611ac1565b95506020870135945060408701359350606087013560ff81168114611b2157600080fd5b9598949750929560808101359460a0909101359350915050565b60008060408385031215611b4e57600080fd5b823591506020830135611b6081611ac1565b809150509250929050565b60008060008060808587031215611b8157600080fd5b843593506020850135611b9381611ac1565b9250604085013591506060850135611baa81611ac1565b939692955090935050565b60008060208385031215611bc857600080fd5b823567ffffffffffffffff80821115611be057600080fd5b818501915085601f830112611bf457600080fd5b813581811115611c0357600080fd5b8660208260051b8501011115611c1857600080fd5b60209290920196919550909350505050565b60005b83811015611c45578181015183820152602001611c2d565b83811115610d525750506000910152565b60008151808452611c6e816020860160208601611c2a565b601f01601f19169290920160200192915050565b6000602080830181845280855180835260408601915060408160051b870101925083870160005b82811015611cd757603f19888603018452611cc5858351611c56565b94509285019290850190600101611ca9565b5092979650505050505050565b634e487b7160e01b600052604160045260246000fd5b60405160a0810167ffffffffffffffff81118282101715611d1d57611d1d611ce4565b60405290565b604051601f8201601f1916810167ffffffffffffffff81118282101715611d4c57611d4c611ce4565b604052919050565b600067ffffffffffffffff821115611d6e57611d6e611ce4565b50601f01601f191660200190565b600082601f830112611d8d57600080fd5b8135611da0611d9b82611d54565b611d23565b818152846020838601011115611db557600080fd5b816020850160208301376000918101602001919091529392505050565b600060208284031215611de457600080fd5b813567ffffffffffffffff80821115611dfc57600080fd5b9083019060a08286031215611e1057600080fd5b611e18611cfa565b823582811115611e2757600080fd5b611e3387828601611d7c565b82525060208301359150611e4682611ac1565b81602082015260408301356040820152606083013560608201526080830135608082015280935050505092915050565b600080600060608486031215611e8b57600080fd5b8335611e9681611ac1565b9250602084013591506040840135611ead81611ac1565b809150509250925092565b600080600080600060a08688031215611ed057600080fd5b8535611edb81611ac1565b9450602086013593506040860135611ef281611ac1565b9250606086013591506080860135611f0981611ac1565b809150509295509295909350565b600060208284031215611f2957600080fd5b813567ffffffffffffffff811115611f4057600080fd5b820160a08185031215611aba57600080fd5b60008060008060608587031215611f6857600080fd5b8435935060208501359250604085013567ffffffffffffffff80821115611f8e57600080fd5b818701915087601f830112611fa257600080fd5b813581811115611fb157600080fd5b886020828501011115611fc357600080fd5b95989497505060200194505050565b602080825260139082015272151c985b9cd858dd1a5bdb881d1bdbc81bdb19606a1b604082015260600190565b60006020828403121561201157600080fd5b8135611aba81611ac1565b60006020828403121561202e57600080fd5b813562ffffff81168114611aba57600080fd5b606093841b6bffffffffffffffffffffffff19908116825260e89390931b6001600160e81b0319166014820152921b166017820152602b0190565b60006020828403121561208e57600080fd5b5051919050565b634e487b7160e01b600052601160045260246000fd5b60008160001904831182151516156120c5576120c5612095565b500290565b6000826120e757634e487b7160e01b600052601260045260246000fd5b500490565b6000828210156120fe576120fe612095565b500390565b634e487b7160e01b600052603260045260246000fd5b6000808335601e1984360301811261213057600080fd5b83018035915067ffffffffffffffff82111561214b57600080fd5b60200191503681900382131561216057600080fd5b9250929050565b8183823760009101908152919050565b60006020828403121561218957600080fd5b815167ffffffffffffffff8111156121a057600080fd5b8201601f810184136121b157600080fd5b80516121bf611d9b82611d54565b8181528560208385010111156121d457600080fd5b6121e5826020830160208601611c2a565b95945050505050565b602081526000611aba6020830184611c56565b60006001820161221357612213612095565b5060010190565b60006020828403121561222c57600080fd5b813567ffffffffffffffff8082111561224457600080fd5b908301906040828603121561225857600080fd5b60405160408101818110838211171561227357612273611ce4565b60405282358281111561228557600080fd5b61229187828601611d7c565b825250602083013592506122a483611ac1565b6020810192909252509392505050565b600082516122c6818460208701611c2a565b9190910192915050565b60006001600160a01b03838116908316818110156122f0576122f0612095565b039392505050565b60006001600160a01b0382811684821680830382111561231a5761231a612095565b01949350505050565b60208152600082516040602084015261233f6060840182611c56565b602094909401516001600160a01b0316604093909301929092525090919050565b6001600160a01b0386811682528515156020830152604082018590528316606082015260a06080820181905260009061239b90830184611c56565b979650505050505050565b600080604083850312156123b957600080fd5b505080516020909101519092909150565b6000600160ff1b82016123df576123df612095565b5060000390565b600082198211156123f9576123f9612095565b500190565b60006020828403121561241057600080fd5b81518015158114611aba57600080fdfea2646970667358221220eb6c13f08cc43998a20df5d744df701ef31999c62770da0091cfa5f685a195ff64736f6c634300080f0033",
    "linkReferences": {}
  },
  "methodIdentifiers": {
    "WETH9()": "4aa4a4fc",
    "exactInput((bytes,address,uint256,uint256,uint256))": "c04b8d59",
    "exactInputSingle((address,address,uint24,address,uint256,uint256,uint256,uint160))": "414bf389",
    "exactOutput((bytes,address,uint256,uint256,uint256))": "f28c0498",
    "exactOutputSingle((address,address,uint24,address,uint256,uint256,uint256,uint160))": "db3e2198",
    "factory()": "c45a0155",
    "multicall(bytes[])": "ac9650d8",
    "refundETH()": "12210e8a",
    "selfPermit(address,uint256,uint256,uint8,bytes32,bytes32)": "f3995c67",
    "selfPermitAllowed(address,uint256,uint256,uint8,bytes32,bytes32)": "4659a494",
    "selfPermitAllowedIfNecessary(address,uint256,uint256,uint8,bytes32,bytes32)": "a4a78f0c",
    "selfPermitIfNecessary(address,uint256,uint256,uint8,bytes32,bytes32)": "c2e3140a",
    "sweepToken(address,uint256,address)": "df2ab5bb",
    "sweepTokenWithFee(address,uint256,address,uint256,address)": "e0e189a0",
    "uniswapV3SwapCallback(int256,int256,bytes)": "fa461e33",
    "unwrapWETH9(uint256,address)": "49404b7c",
    "unwrapWETH9WithFee(uint256,address,uint256,address)": "9b2c0a37"
  },
  "id": 60
}