{
  "abi": [
    {
      "inputs": [
        {
          "internalType": "address",
          "name": "_factory",
          "type": "address"
        },
        {
          "internalType": "address",
          "name": "_WETH9",
          "type": "address"
        },
        {
          "internalType": "address",
          "name": "_tokenDescriptor_",
          "type": "address"
        }
      ],
      "stateMutability": "nonpayable",
      "type": "constructor"
    },
    {
      "inputs": [],
      "name": "T",
      "type": "error"
    },
    {
      "anonymous": false,
      "inputs": [
        {
          "indexed": true,
          "internalType": "address",
          "name": "owner",
          "type": "address"
        },
        {
          "indexed": true,
          "internalType": "address",
          "name": "approved",
          "type": "address"
        },
        {
          "indexed": true,
          "internalType": "uint256",
          "name": "tokenId",
          "type": "uint256"
        }
      ],
      "name": "Approval",
      "type": "event"
    },
    {
      "anonymous": false,
      "inputs": [
        {
          "indexed": true,
          "internalType": "address",
          "name": "owner",
          "type": "address"
        },
        {
          "indexed": true,
          "internalType": "address",
          "name": "operator",
          "type": "address"
        },
        {
          "indexed": false,
          "internalType": "bool",
          "name": "approved",
          "type": "bool"
        }
      ],
      "name": "ApprovalForAll",
      "type": "event"
    },
    {
      "anonymous": false,
      "inputs": [
        {
          "indexed": true,
          "internalType": "uint256",
          "name": "tokenId",
          "type": "uint256"
        },
        {
          "indexed": false,
          "internalType": "address",
          "name": "recipient",
          "type": "address"
        },
        {
          "indexed": false,
          "internalType": "uint256",
          "name": "amount0",
          "type": "uint256"
        },
        {
          "indexed": false,
          "internalType": "uint256",
          "name": "amount1",
          "type": "uint256"
        }
      ],
      "name": "Collect",
      "type": "event"
    },
    {
      "anonymous": false,
      "inputs": [
        {
          "indexed": true,
          "internalType": "uint256",
          "name": "tokenId",
          "type": "uint256"
        },
        {
          "indexed": false,
          "internalType": "uint128",
          "name": "liquidity",
          "type": "uint128"
        },
        {
          "indexed": false,
          "internalType": "uint256",
          "name": "amount0",
          "type": "uint256"
        },
        {
          "indexed": false,
          "internalType": "uint256",
          "name": "amount1",
          "type": "uint256"
        }
      ],
      "name": "DecreaseLiquidity",
      "type": "event"
    },
    {
      "anonymous": false,
      "inputs": [
        {
          "indexed": true,
          "internalType": "uint256",
          "name": "tokenId",
          "type": "uint256"
        },
        {
          "indexed": false,
          "internalType": "uint128",
          "name": "liquidity",
          "type": "uint128"
        },
        {
          "indexed": false,
          "internalType": "uint256",
          "name": "amount0",
          "type": "uint256"
        },
        {
          "indexed": false,
          "internalType": "uint256",
          "name": "amount1",
          "type": "uint256"
        }
      ],
      "name": "IncreaseLiquidity",
      "type": "event"
    },
    {
      "anonymous": false,
      "inputs": [
        {
          "indexed": true,
          "internalType": "address",
          "name": "from",
          "type": "address"
        },
        {
          "indexed": true,
          "internalType": "address",
          "name": "to",
          "type": "address"
        },
        {
          "indexed": true,
          "internalType": "uint256",
          "name": "tokenId",
          "type": "uint256"
        }
      ],
      "name": "Transfer",
      "type": "event"
    },
    {
      "inputs": [],
      "name": "DOMAIN_SEPARATOR",
      "outputs": [
        {
          "internalType": "bytes32",
          "name": "",
          "type": "bytes32"
        }
      ],
      "stateMutability": "view",
      "type": "function"
    },
    {
      "inputs": [],
      "name": "PERMIT_TYPEHASH",
      "outputs": [
        {
          "internalType": "bytes32",
          "name": "",
          "type": "bytes32"
        }
      ],
      "stateMutability": "view",
      "type": "function"
    },
    {
      "inputs": [],
      "name": "WETH9",
      "outputs": [
        {
          "internalType": "address",
          "name": "",
          "type": "address"
        }
      ],
      "stateMutability": "view",
      "type": "function"
    },
    {
      "inputs": [
        {
          "internalType": "address",
          "name": "to",
          "type": "address"
        },
        {
          "internalType": "uint256",
          "name": "tokenId",
          "type": "uint256"
        }
      ],
      "name": "approve",
      "outputs": [],
      "stateMutability": "nonpayable",
      "type": "function"
    },
    {
      "inputs": [
        {
          "internalType": "address",
          "name": "owner",
          "type": "address"
        }
      ],
      "name": "balanceOf",
      "outputs": [
        {
          "internalType": "uint256",
          "name": "",
          "type": "uint256"
        }
      ],
      "stateMutability": "view",
      "type": "function"
    },
    {
      "inputs": [],
      "name": "baseURI",
      "outputs": [
        {
          "internalType": "string",
          "name": "",
          "type": "string"
        }
      ],
      "stateMutability": "pure",
      "type": "function"
    },
    {
      "inputs": [
        {
          "internalType": "uint256",
          "name": "tokenId",
          "type": "uint256"
        }
      ],
      "name": "burn",
      "outputs": [],
      "stateMutability": "payable",
      "type": "function"
    },
    {
      "inputs": [
        {
          "components": [
            {
              "internalType": "uint256",
              "name": "tokenId",
              "type": "uint256"
            },
            {
              "internalType": "address",
              "name": "recipient",
              "type": "address"
            },
            {
              "internalType": "uint128",
              "name": "amount0Max",
              "type": "uint128"
            },
            {
              "internalType": "uint128",
              "name": "amount1Max",
              "type": "uint128"
            }
          ],
          "internalType": "struct INonfungiblePositionManager.CollectParams",
          "name": "params",
          "type": "tuple"
        }
      ],
      "name": "collect",
      "outputs": [
        {
          "internalType": "uint256",
          "name": "amount0",
          "type": "uint256"
        },
        {
          "internalType": "uint256",
          "name": "amount1",
          "type": "uint256"
        }
      ],
      "stateMutability": "payable",
      "type": "function"
    },
    {
      "inputs": [
        {
          "internalType": "address",
          "name": "token0",
          "type": "address"
        },
        {
          "internalType": "address",
          "name": "token1",
          "type": "address"
        },
        {
          "internalType": "uint24",
          "name": "fee",
          "type": "uint24"
        },
        {
          "internalType": "uint160",
          "name": "sqrtPriceX96",
          "type": "uint160"
        }
      ],
      "name": "createAndInitializePoolIfNecessary",
      "outputs": [
        {
          "internalType": "address",
          "name": "pool",
          "type": "address"
        }
      ],
      "stateMutability": "payable",
      "type": "function"
    },
    {
      "inputs": [
        {
          "components": [
            {
              "internalType": "uint256",
              "name": "tokenId",
              "type": "uint256"
            },
            {
              "internalType": "uint128",
              "name": "liquidity",
              "type": "uint128"
            },
            {
              "internalType": "uint256",
              "name": "amount0Min",
              "type": "uint256"
            },
            {
              "internalType": "uint256",
              "name": "amount1Min",
              "type": "uint256"
            },
            {
              "internalType": "uint256",
              "name": "deadline",
              "type": "uint256"
            }
          ],
          "internalType": "struct INonfungiblePositionManager.DecreaseLiquidityParams",
          "name": "params",
          "type": "tuple"
        }
      ],
      "name": "decreaseLiquidity",
      "outputs": [
        {
          "internalType": "uint256",
          "name": "amount0",
          "type": "uint256"
        },
        {
          "internalType": "uint256",
          "name": "amount1",
          "type": "uint256"
        }
      ],
      "stateMutability": "payable",
      "type": "function"
    },
    {
      "inputs": [],
      "name": "factory",
      "outputs": [
        {
          "internalType": "address",
          "name": "",
          "type": "address"
        }
      ],
      "stateMutability": "view",
      "type": "function"
    },
    {
      "inputs": [
        {
          "internalType": "uint256",
          "name": "tokenId",
          "type": "uint256"
        }
      ],
      "name": "getApproved",
      "outputs": [
        {
          "internalType": "address",
          "name": "",
          "type": "address"
        }
      ],
      "stateMutability": "view",
      "type": "function"
    },
    {
      "inputs": [
        {
          "components": [
            {
              "internalType": "uint256",
              "name": "tokenId",
              "type": "uint256"
            },
            {
              "internalType": "uint256",
              "name": "amount0Desired",
              "type": "uint256"
            },
            {
              "internalType": "uint256",
              "name": "amount1Desired",
              "type": "uint256"
            },
            {
              "internalType": "uint256",
              "name": "amount0Min",
              "type": "uint256"
            },
            {
              "internalType": "uint256",
              "name": "amount1Min",
              "type": "uint256"
            },
            {
              "internalType": "uint256",
              "name": "deadline",
              "type": "uint256"
            }
          ],
          "internalType": "struct INonfungiblePositionManager.IncreaseLiquidityParams",
          "name": "params",
          "type": "tuple"
        }
      ],
      "name": "increaseLiquidity",
      "outputs": [
        {
          "internalType": "uint128",
          "name": "liquidity",
          "type": "uint128"
        },
        {
          "internalType": "uint256",
          "name": "amount0",
          "type": "uint256"
        },
        {
          "internalType": "uint256",
          "name": "amount1",
          "type": "uint256"
        }
      ],
      "stateMutability": "payable",
      "type": "function"
    },
    {
      "inputs": [
        {
          "internalType": "address",
          "name": "owner",
          "type": "address"
        },
        {
          "internalType": "address",
          "name": "operator",
          "type": "address"
        }
      ],
      "name": "isApprovedForAll",
      "outputs": [
        {
          "internalType": "bool",
          "name": "",
          "type": "bool"
        }
      ],
      "stateMutability": "view",
      "type": "function"
    },
    {
      "inputs": [
        {
          "components": [
            {
              "internalType": "address",
              "name": "token0",
              "type": "address"
            },
            {
              "internalType": "address",
              "name": "token1",
              "type": "address"
            },
            {
              "internalType": "uint24",
              "name": "fee",
              "type": "uint24"
            },
            {
              "internalType": "int24",
              "name": "tickLower",
              "type": "int24"
            },
            {
              "internalType": "int24",
              "name": "tickUpper",
              "type": "int24"
            },
            {
              "internalType": "uint256",
              "name": "amount0Desired",
              "type": "uint256"
            },
            {
              "internalType": "uint256",
              "name": "amount1Desired",
              "type": "uint256"
            },
            {
              "internalType": "uint256",
              "name": "amount0Min",
              "type": "uint256"
            },
            {
              "internalType": "uint256",
              "name": "amount1Min",
              "type": "uint256"
            },
            {
              "internalType": "address",
              "name": "recipient",
              "type": "address"
            },
            {
              "internalType": "uint256",
              "name": "deadline",
              "type": "uint256"
            }
          ],
          "internalType": "struct INonfungiblePositionManager.MintParams",
          "name": "params",
          "type": "tuple"
        }
      ],
      "name": "mint",
      "outputs": [
        {
          "internalType": "uint256",
          "name": "tokenId",
          "type": "uint256"
        },
        {
          "internalType": "uint128",
          "name": "liquidity",
          "type": "uint128"
        },
        {
          "internalType": "uint256",
          "name": "amount0",
          "type": "uint256"
        },
        {
          "internalType": "uint256",
          "name": "amount1",
          "type": "uint256"
        }
      ],
      "stateMutability": "payable",
      "type": "function"
    },
    {
      "inputs": [
        {
          "internalType": "bytes[]",
          "name": "data",
          "type": "bytes[]"
        }
      ],
      "name": "multicall",
      "outputs": [
        {
          "internalType": "bytes[]",
          "name": "results",
          "type": "bytes[]"
        }
      ],
      "stateMutability": "payable",
      "type": "function"
    },
    {
      "inputs": [],
      "name": "name",
      "outputs": [
        {
          "internalType": "string",
          "name": "",
          "type": "string"
        }
      ],
      "stateMutability": "view",
      "type": "function"
    },
    {
      "inputs": [
        {
          "internalType": "uint256",
          "name": "tokenId",
          "type": "uint256"
        }
      ],
      "name": "ownerOf",
      "outputs": [
        {
          "internalType": "address",
          "name": "",
          "type": "address"
        }
      ],
      "stateMutability": "view",
      "type": "function"
    },
    {
      "inputs": [
        {
          "internalType": "address",
          "name": "spender",
          "type": "address"
        },
        {
          "internalType": "uint256",
          "name": "tokenId",
          "type": "uint256"
        },
        {
          "internalType": "uint256",
          "name": "deadline",
          "type": "uint256"
        },
        {
          "internalType": "uint8",
          "name": "v",
          "type": "uint8"
        },
        {
          "internalType": "bytes32",
          "name": "r",
          "type": "bytes32"
        },
        {
          "internalType": "bytes32",
          "name": "s",
          "type": "bytes32"
        }
      ],
      "name": "permit",
      "outputs": [],
      "stateMutability": "payable",
      "type": "function"
    },
    {
      "inputs": [
        {
          "internalType": "uint256",
          "name": "tokenId",
          "type": "uint256"
        }
      ],
      "name": "positions",
      "outputs": [
        {
          "internalType": "uint96",
          "name": "nonce",
          "type": "uint96"
        },
        {
          "internalType": "address",
          "name": "operator",
          "type": "address"
        },
        {
          "internalType": "address",
          "name": "token0",
          "type": "address"
        },
        {
          "internalType": "address",
          "name": "token1",
          "type": "address"
        },
        {
          "internalType": "uint24",
          "name": "fee",
          "type": "uint24"
        },
        {
          "internalType": "int24",
          "name": "tickLower",
          "type": "int24"
        },
        {
          "internalType": "int24",
          "name": "tickUpper",
          "type": "int24"
        },
        {
          "internalType": "uint128",
          "name": "liquidity",
          "type": "uint128"
        },
        {
          "internalType": "uint256",
          "name": "feeGrowthInside0LastX128",
          "type": "uint256"
        },
        {
          "internalType": "uint256",
          "name": "feeGrowthInside1LastX128",
          "type": "uint256"
        },
        {
          "internalType": "uint128",
          "name": "tokensOwed0",
          "type": "uint128"
        },
        {
          "internalType": "uint128",
          "name": "tokensOwed1",
          "type": "uint128"
        }
      ],
      "stateMutability": "view",
      "type": "function"
    },
    {
      "inputs": [],
      "name": "refundETH",
      "outputs": [],
      "stateMutability": "payable",
      "type": "function"
    },
    {
      "inputs": [
        {
          "internalType": "address",
          "name": "from",
          "type": "address"
        },
        {
          "internalType": "address",
          "name": "to",
          "type": "address"
        },
        {
          "internalType": "uint256",
          "name": "tokenId",
          "type": "uint256"
        }
      ],
      "name": "safeTransferFrom",
      "outputs": [],
      "stateMutability": "nonpayable",
      "type": "function"
    },
    {
      "inputs": [
        {
          "internalType": "address",
          "name": "from",
          "type": "address"
        },
        {
          "internalType": "address",
          "name": "to",
          "type": "address"
        },
        {
          "internalType": "uint256",
          "name": "tokenId",
          "type": "uint256"
        },
        {
          "internalType": "bytes",
          "name": "_data",
          "type": "bytes"
        }
      ],
      "name": "safeTransferFrom",
      "outputs": [],
      "stateMutability": "nonpayable",
      "type": "function"
    },
    {
      "inputs": [
        {
          "internalType": "address",
          "name": "token",
          "type": "address"
        },
        {
          "internalType": "uint256",
          "name": "value",
          "type": "uint256"
        },
        {
          "internalType": "uint256",
          "name": "deadline",
          "type": "uint256"
        },
        {
          "internalType": "uint8",
          "name": "v",
          "type": "uint8"
        },
        {
          "internalType": "bytes32",
          "name": "r",
          "type": "bytes32"
        },
        {
          "internalType": "bytes32",
          "name": "s",
          "type": "bytes32"
        }
      ],
      "name": "selfPermit",
      "outputs": [],
      "stateMutability": "payable",
      "type": "function"
    },
    {
      "inputs": [
        {
          "internalType": "address",
          "name": "token",
          "type": "address"
        },
        {
          "internalType": "uint256",
          "name": "nonce",
          "type": "uint256"
        },
        {
          "internalType": "uint256",
          "name": "expiry",
          "type": "uint256"
        },
        {
          "internalType": "uint8",
          "name": "v",
          "type": "uint8"
        },
        {
          "internalType": "bytes32",
          "name": "r",
          "type": "bytes32"
        },
        {
          "internalType": "bytes32",
          "name": "s",
          "type": "bytes32"
        }
      ],
      "name": "selfPermitAllowed",
      "outputs": [],
      "stateMutability": "payable",
      "type": "function"
    },
    {
      "inputs": [
        {
          "internalType": "address",
          "name": "token",
          "type": "address"
        },
        {
          "internalType": "uint256",
          "name": "nonce",
          "type": "uint256"
        },
        {
          "internalType": "uint256",
          "name": "expiry",
          "type": "uint256"
        },
        {
          "internalType": "uint8",
          "name": "v",
          "type": "uint8"
        },
        {
          "internalType": "bytes32",
          "name": "r",
          "type": "bytes32"
        },
        {
          "internalType": "bytes32",
          "name": "s",
          "type": "bytes32"
        }
      ],
      "name": "selfPermitAllowedIfNecessary",
      "outputs": [],
      "stateMutability": "payable",
      "type": "function"
    },
    {
      "inputs": [
        {
          "internalType": "address",
          "name": "token",
          "type": "address"
        },
        {
          "internalType": "uint256",
          "name": "value",
          "type": "uint256"
        },
        {
          "internalType": "uint256",
          "name": "deadline",
          "type": "uint256"
        },
        {
          "internalType": "uint8",
          "name": "v",
          "type": "uint8"
        },
        {
          "internalType": "bytes32",
          "name": "r",
          "type": "bytes32"
        },
        {
          "internalType": "bytes32",
          "name": "s",
          "type": "bytes32"
        }
      ],
      "name": "selfPermitIfNecessary",
      "outputs": [],
      "stateMutability": "payable",
      "type": "function"
    },
    {
      "inputs": [
        {
          "internalType": "address",
          "name": "operator",
          "type": "address"
        },
        {
          "internalType": "bool",
          "name": "approved",
          "type": "bool"
        }
      ],
      "name": "setApprovalForAll",
      "outputs": [],
      "stateMutability": "nonpayable",
      "type": "function"
    },
    {
      "inputs": [
        {
          "internalType": "bytes4",
          "name": "interfaceId",
          "type": "bytes4"
        }
      ],
      "name": "supportsInterface",
      "outputs": [
        {
          "internalType": "bool",
          "name": "",
          "type": "bool"
        }
      ],
      "stateMutability": "view",
      "type": "function"
    },
    {
      "inputs": [
        {
          "internalType": "address",
          "name": "token",
          "type": "address"
        },
        {
          "internalType": "uint256",
          "name": "amountMinimum",
          "type": "uint256"
        },
        {
          "internalType": "address",
          "name": "recipient",
          "type": "address"
        }
      ],
      "name": "sweepToken",
      "outputs": [],
      "stateMutability": "payable",
      "type": "function"
    },
    {
      "inputs": [],
      "name": "symbol",
      "outputs": [
        {
          "internalType": "string",
          "name": "",
          "type": "string"
        }
      ],
      "stateMutability": "view",
      "type": "function"
    },
    {
      "inputs": [
        {
          "internalType": "uint256",
          "name": "index",
          "type": "uint256"
        }
      ],
      "name": "tokenByIndex",
      "outputs": [
        {
          "internalType": "uint256",
          "name": "",
          "type": "uint256"
        }
      ],
      "stateMutability": "view",
      "type": "function"
    },
    {
      "inputs": [
        {
          "internalType": "address",
          "name": "owner",
          "type": "address"
        },
        {
          "internalType": "uint256",
          "name": "index",
          "type": "uint256"
        }
      ],
      "name": "tokenOfOwnerByIndex",
      "outputs": [
        {
          "internalType": "uint256",
          "name": "",
          "type": "uint256"
        }
      ],
      "stateMutability": "view",
      "type": "function"
    },
    {
      "inputs": [
        {
          "internalType": "uint256",
          "name": "tokenId",
          "type": "uint256"
        }
      ],
      "name": "tokenURI",
      "outputs": [
        {
          "internalType": "string",
          "name": "",
          "type": "string"
        }
      ],
      "stateMutability": "view",
      "type": "function"
    },
    {
      "inputs": [],
      "name": "totalSupply",
      "outputs": [
        {
          "internalType": "uint256",
          "name": "",
          "type": "uint256"
        }
      ],
      "stateMutability": "view",
      "type": "function"
    },
    {
      "inputs": [
        {
          "internalType": "address",
          "name": "from",
          "type": "address"
        },
        {
          "internalType": "address",
          "name": "to",
          "type": "address"
        },
        {
          "internalType": "uint256",
          "name": "tokenId",
          "type": "uint256"
        }
      ],
      "name": "transferFrom",
      "outputs": [],
      "stateMutability": "nonpayable",
      "type": "function"
    },
    {
      "inputs": [
        {
          "internalType": "uint256",
          "name": "amount0Owed",
          "type": "uint256"
        },
        {
          "internalType": "uint256",
          "name": "amount1Owed",
          "type": "uint256"
        },
        {
          "internalType": "bytes",
          "name": "data",
          "type": "bytes"
        }
      ],
      "name": "uniswapV3MintCallback",
      "outputs": [],
      "stateMutability": "nonpayable",
      "type": "function"
    },
    {
      "inputs": [
        {
          "internalType": "uint256",
          "name": "amountMinimum",
          "type": "uint256"
        },
        {
          "internalType": "address",
          "name": "recipient",
          "type": "address"
        }
      ],
      "name": "unwrapWETH9",
      "outputs": [],
      "stateMutability": "payable",
      "type": "function"
    },
    {
      "stateMutability": "payable",
      "type": "receive"
    }
  ],
  "bytecode": {
    "object": "0x610120604052760100000000000000000000000000000000000000000001600d553480156200002d57600080fd5b5060405162005aff38038062005aff83398101604081905262000050916200013f565b82826040518060400160405280601b81526020017f556e697377617020563320506f736974696f6e73204e46542d563100000000008152506040518060400160405280600a815260200169554e492d56332d504f5360b01b815250604051806040016040528060018152602001603160f81b81525082828160009081620000d891906200022e565b506001620000e782826200022e565b5050835160209485012060805250805192019190912060a052506001600160a01b0391821660c052811660e052166101005250620002fa9050565b80516001600160a01b03811681146200013a57600080fd5b919050565b6000806000606084860312156200015557600080fd5b620001608462000122565b9250620001706020850162000122565b9150620001806040850162000122565b90509250925092565b634e487b7160e01b600052604160045260246000fd5b600181811c90821680620001b457607f821691505b602082108103620001d557634e487b7160e01b600052602260045260246000fd5b50919050565b601f8211156200022957600081815260208120601f850160051c81016020861015620002045750805b601f850160051c820191505b81811015620002255782815560010162000210565b5050505b505050565b81516001600160401b038111156200024a576200024a62000189565b62000262816200025b84546200019f565b84620001db565b602080601f8311600181146200029a5760008415620002815750858301515b600019600386901b1c1916600185901b17855562000225565b600085815260208120601f198616915b82811015620002cb57888601518255948401946001909101908401620002aa565b5085821015620002ea5787850151600019600388901b60f8161c191681555b5050505050600190811b01905550565b60805160a05160c05160e0516101005161576c620003936000396000612934015260008181610239015281816104db015281816117960152818161186c01528181613d8b01528181613dd10152613e660152600081816106a401528181610b2001528181610ee301528181610f84015281816129c001528181612c5c015261350c0152600061158101526000611560015261576c6000f3fe6080604052600436106102295760003560e01c80636352211e11610123578063ac9650d8116100ab578063d34879971161006f578063d3487997146106e6578063df2ab5bb14610706578063e985e9c514610719578063f3995c6714610762578063fc6f78651461077557600080fd5b8063ac9650d81461063f578063b88d4fde1461065f578063c2e3140a1461067f578063c45a015514610692578063c87b56dd146106c657600080fd5b806388316456116100f2578063883164561461058457806395d89b41146105bf57806399fbab88146105d4578063a22cb4651461060c578063a4a78f0c1461062c57600080fd5b80636352211e1461051d5780636c0360eb1461053d57806370a08231146105515780637ac2ff7b1461057157600080fd5b806323b872dd116101b157806342966c681161017557806342966c68146104905780634659a494146104a357806349404b7c146104b65780634aa4a4fc146104c95780634f6ccce7146104fd57600080fd5b806323b872dd146103e75780632f745c591461040757806330adf81f146104275780633644e5151461045b57806342842e0e1461047057600080fd5b80630c49ccbe116101f85780630c49ccbe1461034d57806312210e8a1461037557806313ead5621461037d57806318160ddd14610390578063219f5d17146103af57600080fd5b806301ffc9a71461029e57806306fdde03146102d3578063081812fc146102f5578063095ea7b31461032d57600080fd5b3661029957336001600160a01b037f000000000000000000000000000000000000000000000000000000000000000016146102975760405162461bcd60e51b81526020600482015260096024820152684e6f7420574554483960b81b60448201526064015b60405180910390fd5b005b600080fd5b3480156102aa57600080fd5b506102be6102b93660046149b0565b610788565b60405190151581526020015b60405180910390f35b3480156102df57600080fd5b506102e86107b3565b6040516102ca9190614a25565b34801561030157600080fd5b50610315610310366004614a38565b610845565b6040516001600160a01b0390911681526020016102ca565b34801561033957600080fd5b50610297610348366004614a66565b6108e1565b61036061035b366004614a92565b6109f6565b604080519283526020830191909152016102ca565b610297610e9a565b61031561038b366004614abd565b610eac565b34801561039c57600080fd5b506008545b6040519081526020016102ca565b6103c26103bd366004614b17565b611147565b604080516001600160801b0390941684526020840192909252908201526060016102ca565b3480156103f357600080fd5b50610297610402366004614b29565b611474565b34801561041357600080fd5b506103a1610422366004614a66565b6114a5565b34801561043357600080fd5b506103a17f49ecf333e5b8c95c40fdafc95c1ad136e8914a8fb55e9dc8bb01eaa83a2df9ad81565b34801561046757600080fd5b506103a161153b565b34801561047c57600080fd5b5061029761048b366004614b29565b6115e1565b61029761049e366004614a38565b6115fc565b6102976104b1366004614b79565b6116e9565b6102976104c4366004614bd5565b61177e565b3480156104d557600080fd5b506103157f000000000000000000000000000000000000000000000000000000000000000081565b34801561050957600080fd5b506103a1610518366004614a38565b6118da565b34801561052957600080fd5b50610315610538366004614a38565b61196d565b34801561054957600080fd5b5060606102e8565b34801561055d57600080fd5b506103a161056c366004614c05565b6119e4565b61029761057f366004614b79565b611a6b565b610597610592366004614c22565b611df4565b604080519485526001600160801b0390931660208501529183015260608201526080016102ca565b3480156105cb57600080fd5b506102e8612351565b3480156105e057600080fd5b506105f46105ef366004614a38565b612360565b6040516102ca9c9b9a99989796959493929190614c35565b34801561061857600080fd5b50610297610627366004614ce4565b61258e565b61029761063a366004614b79565b612652565b61065261064d366004614d12565b6126e0565b6040516102ca9190614d87565b34801561066b57600080fd5b5061029761067a366004614e58565b612838565b61029761068d366004614b79565b612870565b34801561069e57600080fd5b506103157f000000000000000000000000000000000000000000000000000000000000000081565b3480156106d257600080fd5b506102e86106e1366004614a38565b6128f4565b3480156106f257600080fd5b50610297610701366004614f07565b6129ab565b610297610714366004614f87565b612a29565b34801561072557600080fd5b506102be610734366004614fc9565b6001600160a01b03918216600090815260056020908152604080832093909416825291909152205460ff1690565b610297610770366004614b79565b612aec565b610360610783366004614ff7565b612b43565b60006001600160e01b0319821663780e9d6360e01b14806107ad57506107ad8261301a565b92915050565b6060600080546107c290615009565b80601f01602080910402602001604051908101604052809291908181526020018280546107ee90615009565b801561083b5780601f106108105761010080835404028352916020019161083b565b820191906000526020600020905b81548152906001019060200180831161081e57829003601f168201915b5050505050905090565b6000818152600260205260408120546001600160a01b03166108be5760405162461bcd60e51b815260206004820152602c60248201527f4552433732313a20617070726f76656420717565727920666f72206e6f6e657860448201526b34b9ba32b73a103a37b5b2b760a11b606482015260840161028e565b506000908152600c6020526040902054600160601b90046001600160a01b031690565b60006108ec8261196d565b9050806001600160a01b0316836001600160a01b0316036109595760405162461bcd60e51b815260206004820152602160248201527f4552433732313a20617070726f76616c20746f2063757272656e74206f776e656044820152603960f91b606482015260840161028e565b336001600160a01b038216148061097557506109758133610734565b6109e75760405162461bcd60e51b815260206004820152603860248201527f4552433732313a20617070726f76652063616c6c6572206973206e6f74206f7760448201527f6e6572206e6f7220617070726f76656420666f7220616c6c0000000000000000606482015260840161028e565b6109f1838361306a565b505050565b6000808235610a0533826130e0565b610a215760405162461bcd60e51b815260040161028e9061503d565b608084013580421115610a465760405162461bcd60e51b815260040161028e90615063565b6000610a5860408701602088016150a5565b6001600160801b031611610a6b57600080fd5b84356000908152600c602090815260409182902060018101549092600160801b9091046001600160801b031691610aa69189019089016150a5565b6001600160801b0316816001600160801b03161015610ac457600080fd5b6001828101546001600160501b03166000908152600b60209081526040808320815160608101835281546001600160a01b039081168252919095015490811692850192909252600160a01b90910462ffffff1690830152610b457f0000000000000000000000000000000000000000000000000000000000000000836131d3565b60018501549091506001600160a01b0382169063a34123a790600160501b8104600290810b91600160681b9004900b610b8460408e0160208f016150a5565b6040516001600160e01b031960e086901b168152600293840b60048201529190920b60248201526001600160801b03909116604482015260640160408051808303816000875af1158015610bdc573d6000803e3d6000fd5b505050506040513d601f19601f82011682018060405250810190610c0091906150c2565b909850965060408901358810801590610c1d575088606001358710155b610c605760405162461bcd60e51b8152602060048201526014602482015273507269636520736c69707061676520636865636b60601b604482015260640161028e565b6001840154600090610c89903090600160501b8104600290810b91600160681b9004900b613316565b9050600080836001600160a01b031663514ea4bf846040518263ffffffff1660e01b8152600401610cbc91815260200190565b60a060405180830381865afa158015610cd9573d6000803e3d6000fd5b505050506040513d601f19601f82011682018060405250810190610cfd91906150e6565b50509250925050610d2b876002015483610d17919061515e565b876001600160801b0316600160801b61336a565b610d35908c615175565b600488018054600090610d529084906001600160801b0316615175565b92506101000a8154816001600160801b0302191690836001600160801b03160217905550610d89876003015482610d17919061515e565b610d93908b615175565b600488018054601090610db7908490600160801b90046001600160801b0316615175565b82546001600160801b039182166101009390930a9283029190920219909116179055506002870182905560038701819055610df860408d0160208e016150a5565b610e0290876151a0565b8760010160106101000a8154816001600160801b0302191690836001600160801b031602179055508b600001357f26f6a048ee9138f2c0ce266f322cb99228e8d619ae2bff30c67f8dcf9d2377b48d6020016020810190610e6391906150a5565b604080516001600160801b039092168252602082018f905281018d90526060015b60405180910390a2505050505050505050915091565b4715610eaa57610eaa334761341c565b565b6000836001600160a01b0316856001600160a01b031610610ecc57600080fd5b604051630b4c774160e11b81526001600160a01b037f00000000000000000000000000000000000000000000000000000000000000001690631698ee8290610f1c908890889088906004016151c8565b602060405180830381865afa158015610f39573d6000803e3d6000fd5b505050506040513d601f19601f82011682018060405250810190610f5d91906151f0565b90506001600160a01b0381166110645760405163a167129560e01b81526001600160a01b037f0000000000000000000000000000000000000000000000000000000000000000169063a167129590610fbd908890889088906004016151c8565b6020604051808303816000875af1158015610fdc573d6000803e3d6000fd5b505050506040513d601f19601f8201168201806040525081019061100091906151f0565b60405163f637731d60e01b81526001600160a01b0384811660048301529192509082169063f637731d90602401600060405180830381600087803b15801561104757600080fd5b505af115801561105b573d6000803e3d6000fd5b5050505061113f565b6000816001600160a01b0316633850c7bd6040518163ffffffff1660e01b815260040160e060405180830381865afa1580156110a4573d6000803e3d6000fd5b505050506040513d601f19601f820116820180604052508101906110c8919061522e565b5050505050509050806001600160a01b031660000361113d5760405163f637731d60e01b81526001600160a01b03848116600483015283169063f637731d90602401600060405180830381600087803b15801561112457600080fd5b505af1158015611138573d6000803e3d6000fd5b505050505b505b949350505050565b6000808060a0840135804211156111705760405162461bcd60e51b815260040161028e90615063565b84356000908152600c602090815260408083206001808201546001600160501b0381168652600b855283862084516060808201875282546001600160a01b039081168352929094015480831682890190815262ffffff600160a01b9092048216838901908152885161014081018a528451861681529151909416818a0152925116828701523082850152600160501b8304600290810b608080850191909152600160681b909404900b60a0830152958c013560c0820152938b013560e0850152908a0135610100840152890135610120830152929061124e906134bf565b6001870154939a5091985096509150600090611281903090600160501b8104600290810b91600160681b9004900b613316565b9050600080836001600160a01b031663514ea4bf846040518263ffffffff1660e01b81526004016112b491815260200190565b60a060405180830381865afa1580156112d1573d6000803e3d6000fd5b505050506040513d601f19601f820116820180604052508101906112f591906150e6565b5050925092505061132c86600201548361130f919061515e565b60018801546001600160801b03600160801b91829004169061336a565b6004870180546000906113499084906001600160801b0316615175565b92506101000a8154816001600160801b0302191690836001600160801b0316021790555061138086600301548261130f919061515e565b6004870180546010906113a4908490600160801b90046001600160801b0316615175565b92506101000a8154816001600160801b0302191690836001600160801b03160217905550818660020181905550808660030181905550898660010160108282829054906101000a90046001600160801b03166114009190615175565b82546101009290920a6001600160801b0381810219909316918316021790915560408051918d168252602082018c905281018a90528c3591507f3067048beee31b25b2f1681f88dac838c8bba36af25bfb2b7cf7473a5847e35f9060600160405180910390a2505050505050509193909250565b61147e33826130e0565b61149a5760405162461bcd60e51b815260040161028e906152c0565b6109f18383836137fb565b60006114b0836119e4565b82106115125760405162461bcd60e51b815260206004820152602b60248201527f455243373231456e756d657261626c653a206f776e657220696e646578206f7560448201526a74206f6620626f756e647360a81b606482015260840161028e565b506001600160a01b03919091166000908152600660209081526040808320938352929052205490565b60007f8b73c3c69bb8fe3d512ecc4cf759cc79239f7b179b0ffacaa9a75d522b39400f7f00000000000000000000000000000000000000000000000000000000000000007f000000000000000000000000000000000000000000000000000000000000000046604080516020810195909552840192909252606083015260808201523060a082015260c00160405160208183030381529060405280519060200120905090565b6109f183838360405180602001604052806000815250612838565b8061160733826130e0565b6116235760405162461bcd60e51b815260040161028e9061503d565b6000828152600c602052604090206001810154600160801b90046001600160801b031615801561165e575060048101546001600160801b0316155b801561167c57506004810154600160801b90046001600160801b0316155b6116b65760405162461bcd60e51b815260206004820152600b60248201526a139bdd0818db19585c995960aa1b604482015260640161028e565b6000838152600c60205260408120818155600181018290556002810182905560038101829055600401556109f1836139a6565b6040516323f2ebc360e21b815233600482015230602482015260448101869052606481018590526001608482015260ff841660a482015260c4810183905260e481018290526001600160a01b03871690638fcbaf0c90610104015b600060405180830381600087803b15801561175e57600080fd5b505af1158015611772573d6000803e3d6000fd5b50505050505050505050565b6040516370a0823160e01b81523060048201526000907f00000000000000000000000000000000000000000000000000000000000000006001600160a01b0316906370a0823190602401602060405180830381865afa1580156117e5573d6000803e3d6000fd5b505050506040513d601f19601f820116820180604052508101906118099190615311565b9050828110156118505760405162461bcd60e51b8152602060048201526012602482015271496e73756666696369656e7420574554483960701b604482015260640161028e565b80156109f157604051632e1a7d4d60e01b8152600481018290527f00000000000000000000000000000000000000000000000000000000000000006001600160a01b031690632e1a7d4d90602401600060405180830381600087803b1580156118b857600080fd5b505af11580156118cc573d6000803e3d6000fd5b505050506109f1828261341c565b60006118e560085490565b82106119485760405162461bcd60e51b815260206004820152602c60248201527f455243373231456e756d657261626c653a20676c6f62616c20696e646578206f60448201526b7574206f6620626f756e647360a01b606482015260840161028e565b6008828154811061195b5761195b61532a565b90600052602060002001549050919050565b6000818152600260205260408120546001600160a01b0316806107ad5760405162461bcd60e51b815260206004820152602960248201527f4552433732313a206f776e657220717565727920666f72206e6f6e657869737460448201526832b73a103a37b5b2b760b91b606482015260840161028e565b60006001600160a01b038216611a4f5760405162461bcd60e51b815260206004820152602a60248201527f4552433732313a2062616c616e636520717565727920666f7220746865207a65604482015269726f206164647265737360b01b606482015260840161028e565b506001600160a01b031660009081526003602052604090205490565b83421115611aac5760405162461bcd60e51b815260206004820152600e60248201526d14195c9b5a5d08195e1c1a5c995960921b604482015260640161028e565b6000611ab661153b565b7f49ecf333e5b8c95c40fdafc95c1ad136e8914a8fb55e9dc8bb01eaa83a2df9ad8888611ae281613a4d565b6040805160208101959095526001600160a01b03909316928401929092526060830152608082015260a0810187905260c00160405160208183030381529060405280519060200120604051602001611b5192919061190160f01b81526002810192909252602282015260420190565b6040516020818303038152906040528051906020012090506000611b748761196d565b9050806001600160a01b0316886001600160a01b031603611be75760405162461bcd60e51b815260206004820152602760248201527f4552433732315065726d69743a20617070726f76616c20746f2063757272656e6044820152663a1037bbb732b960c91b606482015260840161028e565b803b15611ce357604080516020810186905280820185905260f887901b6001600160f81b0319166060820152815160418183030181526061820192839052630b135d3f60e11b9092526001600160a01b03831691631626ba7e91611c4f918691606501615340565b602060405180830381865afa158015611c6c573d6000803e3d6000fd5b505050506040513d601f19601f82011682018060405250810190611c909190615359565b6001600160e01b031916631626ba7e60e01b14611cde5760405162461bcd60e51b815260206004820152600c60248201526b155b985d5d1a1bdc9a5e995960a21b604482015260640161028e565b611de0565b6040805160008082526020820180845285905260ff881692820192909252606081018690526080810185905260019060a0016020604051602081039080840390855afa158015611d37573d6000803e3d6000fd5b5050604051601f1901519150506001600160a01b038116611d8e5760405162461bcd60e51b8152602060048201526011602482015270496e76616c6964207369676e617475726560781b604482015260640161028e565b816001600160a01b0316816001600160a01b031614611dde5760405162461bcd60e51b815260206004820152600c60248201526b155b985d5d1a1bdc9a5e995960a21b604482015260640161028e565b505b611dea888861306a565b5050505050505050565b600080808061014085013580421115611e1f5760405162461bcd60e51b815260040161028e90615063565b611e44604051806040016040528060048152602001637465686560e01b815250613aa5565b604080516101408101909152600090611f109080611e6560208b018b614c05565b6001600160a01b03168152602001896020016020810190611e869190614c05565b6001600160a01b03168152602001611ea460608b0160408c01615376565b62ffffff168152306020820152604001611ec460808b0160608c01615391565b60020b8152602001611edc60a08b0160808c01615391565b60020b81526020018960a0013581526020018960c0013581526020018960e0013581526020018961010001358152506134bf565b6040805180820190915260048152637465686560e01b602082015293985091965094509150611f3e90613aa5565b611fa1611f5361014089016101208a01614c05565b600d80546001600160b01b0316906000611f6c836153ae565b91906101000a8154816001600160b01b0302191690836001600160b01b031602179055506001600160b01b0316975087613aeb565b6000611fcc30611fb760808b0160608c01615391565b611fc760a08c0160808d01615391565b613316565b9050600080836001600160a01b031663514ea4bf846040518263ffffffff1660e01b8152600401611fff91815260200190565b60a060405180830381865afa15801561201c573d6000803e3d6000fd5b505050506040513d601f19601f8201168201806040525081019061204091906150e6565b5050925092505060006120b98560405180606001604052808e600001602081019061206b9190614c05565b6001600160a01b031681526020018e602001602081019061208c9190614c05565b6001600160a01b031681526020018e60400160208101906120ad9190615376565b62ffffff169052613c39565b905060405180610140016040528060006001600160601b0316815260200160006001600160a01b03168152602001826001600160501b031681526020018c60600160208101906121099190615391565b60020b815260200161212160a08e0160808f01615391565b60020b81526020018a6001600160801b0316815260200184815260200183815260200160006001600160801b0316815260200160006001600160801b0316815250600c60008c815260200190815260200160002060008201518160000160006101000a8154816001600160601b0302191690836001600160601b03160217905550602082015181600001600c6101000a8154816001600160a01b0302191690836001600160a01b0316021790555060408201518160010160006101000a8154816001600160501b0302191690836001600160501b03160217905550606082015181600101600a6101000a81548162ffffff021916908360020b62ffffff160217905550608082015181600101600d6101000a81548162ffffff021916908360020b62ffffff16021790555060a08201518160010160106101000a8154816001600160801b0302191690836001600160801b0316021790555060c0820151816002015560e082015181600301556101008201518160040160006101000a8154816001600160801b0302191690836001600160801b031602179055506101208201518160040160106101000a8154816001600160801b0302191690836001600160801b03160217905550905050897f3067048beee31b25b2f1681f88dac838c8bba36af25bfb2b7cf7473a5847e35f8a8a8a60405161233c939291906001600160801b039390931683526020830191909152604082015260600190565b60405180910390a25050505050509193509193565b6060600180546107c290615009565b6000818152600c6020908152604080832081516101408101835281546001600160601b03811682526001600160a01b03600160601b909104169381019390935260018101546001600160501b038116928401839052600160501b8104600290810b6060860152600160681b8204810b60808601526001600160801b03600160801b92839004811660a08701529083015460c0860152600383015460e086015260049092015480831661010086015204166101208301528291829182918291829182918291829182918291829190820361246e5760405162461bcd60e51b815260206004820152601060248201526f125b9d985b1a59081d1bdad95b88125160821b604482015260640161028e565b6000600b600083604001516001600160501b03166001600160501b031681526020019081526020016000206040518060600160405290816000820160009054906101000a90046001600160a01b03166001600160a01b03166001600160a01b031681526020016001820160009054906101000a90046001600160a01b03166001600160a01b03166001600160a01b031681526020016001820160149054906101000a900462ffffff1662ffffff1662ffffff1681525050905081600001518260200151826000015183602001518460400151866060015187608001518860a001518960c001518a60e001518b61010001518c61012001519d509d509d509d509d509d509d509d509d509d509d509d50505091939597999b5091939597999b565b336001600160a01b038316036125e65760405162461bcd60e51b815260206004820152601960248201527f4552433732313a20617070726f766520746f2063616c6c657200000000000000604482015260640161028e565b3360008181526005602090815260408083206001600160a01b03871680855290835292819020805460ff191686151590811790915590519081529192917f17307eab39ab6107e8899845ad3d59bd9653f200f220920489ca2b5937696c31910160405180910390a35050565b604051636eb1769f60e11b8152336004820152306024820152600019906001600160a01b0388169063dd62ed3e90604401602060405180830381865afa1580156126a0573d6000803e3d6000fd5b505050506040513d601f19601f820116820180604052508101906126c49190615311565b10156126d8576126d88686868686866116e9565b505050505050565b60608167ffffffffffffffff8111156126fb576126fb614de9565b60405190808252806020026020018201604052801561272e57816020015b60608152602001906001900390816127195790505b50905060005b8281101561283157600080308686858181106127525761275261532a565b905060200281019061276491906153dc565b60405161277292919061542a565b600060405180830381855af49150503d80600081146127ad576040519150601f19603f3d011682016040523d82523d6000602084013e6127b2565b606091505b5091509150816127fe576044815110156127cb57600080fd5b600481019050808060200190518101906127e5919061543a565b60405162461bcd60e51b815260040161028e9190614a25565b808484815181106128115761281161532a565b602002602001018190525050508080612829906154a8565b915050612734565b5092915050565b61284233836130e0565b61285e5760405162461bcd60e51b815260040161028e906152c0565b61286a84848484613d33565b50505050565b604051636eb1769f60e11b815233600482015230602482015285906001600160a01b0388169063dd62ed3e90604401602060405180830381865afa1580156128bc573d6000803e3d6000fd5b505050506040513d601f19601f820116820180604052508101906128e09190615311565b10156126d8576126d8868686868686612aec565b6000818152600260205260409020546060906001600160a01b031661291857600080fd5b60405163e9dc637560e01b8152306004820152602481018390527f00000000000000000000000000000000000000000000000000000000000000006001600160a01b03169063e9dc637590604401600060405180830381865afa158015612983573d6000803e3d6000fd5b505050506040513d6000823e601f3d908101601f191682016040526107ad919081019061543a565b60006129b9828401846154c1565b90506129e97f00000000000000000000000000000000000000000000000000000000000000008260000151613d66565b508415612a04578051516020820151612a0491903388613d89565b8315612a2257612a2281600001516020015182602001513387613d89565b5050505050565b6040516370a0823160e01b81523060048201526000906001600160a01b038516906370a0823190602401602060405180830381865afa158015612a70573d6000803e3d6000fd5b505050506040513d601f19601f82011682018060405250810190612a949190615311565b905082811015612adb5760405162461bcd60e51b815260206004820152601260248201527124b739bab33334b1b4b2b73a103a37b5b2b760711b604482015260640161028e565b801561286a5761286a848383613f09565b60405163d505accf60e01b8152336004820152306024820152604481018690526064810185905260ff8416608482015260a4810183905260c481018290526001600160a01b0387169063d505accf9060e401611744565b6000808235612b5233826130e0565b612b6e5760405162461bcd60e51b815260040161028e9061503d565b6000612b8060608601604087016150a5565b6001600160801b03161180612bad57506000612ba260808601606087016150a5565b6001600160801b0316115b612bb657600080fd5b600080612bc96040870160208801614c05565b6001600160a01b031614612bec57612be76040860160208701614c05565b612bee565b305b85356000908152600c602090815260408083206001808201546001600160501b03168552600b8452828520835160608101855281546001600160a01b039081168252919092015490811694820194909452600160a01b90930462ffffff169183019190915292935090612c817f0000000000000000000000000000000000000000000000000000000000000000836131d3565b600484015460018501549192506001600160801b0380821692600160801b9283900482169290041615612e4b57600185015460405163a34123a760e01b8152600160501b8204600290810b6004830152600160681b90920490910b6024820152600060448201526001600160a01b0384169063a34123a79060640160408051808303816000875af1158015612d1a573d6000803e3d6000fd5b505050506040513d601f19601f82011682018060405250810190612d3e91906150c2565b5050600185015460009081906001600160a01b0386169063514ea4bf90612d7c903090600160501b8104600290810b91600160681b9004900b613316565b6040518263ffffffff1660e01b8152600401612d9a91815260200190565b60a060405180830381865afa158015612db7573d6000803e3d6000fd5b505050506040513d601f19601f82011682018060405250810190612ddb91906150e6565b50509250925050612e12876002015483612df5919061515e565b60018901546001600160801b03600160801b91829004169061336a565b612e1c9085615175565b9350612e31876003015482612df5919061515e565b612e3b9084615175565b6002880192909255600387015590505b6000806001600160801b038416612e6860608e0160408f016150a5565b6001600160801b031611612e8b57612e8660608d0160408e016150a5565b612e8d565b835b836001600160801b03168d6060016020810190612eaa91906150a5565b6001600160801b031611612ecd57612ec860808e0160608f016150a5565b612ecf565b835b60018901546040516309e3d67b60e31b81526001600160a01b038c81166004830152600160501b8304600290810b6024840152600160681b90930490920b60448201526001600160801b03808516606483015283166084820152929450909250861690634f1eb3d89060a40160408051808303816000875af1158015612f59573d6000803e3d6000fd5b505050506040513d601f19601f82011682018060405250810190612f7d9190615580565b6001600160801b039182169c50169950612f9782856151a0565b612fa182856151a0565b6001600160801b03918216908216600160801b026fffffffffffffffffffffffffffffffff1916176004890155604080516001600160a01b038b1681528483166020820152918316908201528c35907f40d0efd1a53d60ecbf40971b9daf7dc90178c3aadc7aab1765632738fa8b8f0190606001610e84565b60006001600160e01b031982166380ac58cd60e01b148061304b57506001600160e01b03198216635b5e139f60e01b145b806107ad57506301ffc9a760e01b6001600160e01b03198316146107ad565b6000818152600c6020526040902080546001600160601b0316600160601b6001600160a01b0385169081029190911790915581906130a78261196d565b6001600160a01b03167f8c5be1e5ebec7d5bd14f71427d1e84f3dd0314c0f7b2291e5b200ac8c7c3b92560405160405180910390a45050565b6000818152600260205260408120546001600160a01b03166131595760405162461bcd60e51b815260206004820152602c60248201527f4552433732313a206f70657261746f7220717565727920666f72206e6f6e657860448201526b34b9ba32b73a103a37b5b2b760a11b606482015260840161028e565b60006131648361196d565b9050806001600160a01b0316846001600160a01b0316148061319f5750836001600160a01b031661319484610845565b6001600160a01b0316145b8061113f57506001600160a01b0380821660009081526005602090815260408083209388168352929052205460ff1661113f565b600081602001516001600160a01b031682600001516001600160a01b0316106131fb57600080fd5b613230604051806040016040528060148152602001733332b296103a37b5b2b71816103a37b5b2b7189d60611b815250613aa5565b613242826040015162ffffff16614002565b815161324d90614047565b61325a8260200151614047565b8282600001518360200151846040015160405160200161327c939291906151c8565b60408051601f198184030181529082905280516020918201206132f7939290917fa598dd2fba360510c5a8f02f44423a4468e902df5857dbce3ca162a43a3a31ff91016001600160f81b0319815260609390931b6bffffffffffffffffffffffff191660018401526015830191909152603582015260550190565b60408051601f1981840301815291905280516020909101209392505050565b6040516bffffffffffffffffffffffff19606085901b16602082015260e883811b603483015282901b6037820152600090603a016040516020818303038152906040528051906020012090505b9392505050565b60008080600019858709858702925082811083820303915050806000036133a3576000841161339857600080fd5b508290049050613363565b8084116133af57600080fd5b6000848688096000868103871696879004966002600389028118808a02820302808a02820302808a02820302808a02820302808a02820302808a02909103029181900381900460010186841190950394909402919094039290920491909117919091029150509392505050565b604080516000808252602082019092526001600160a01b03841690839060405161344691906155af565b60006040518083038185875af1925050503d8060008114613483576040519150601f19603f3d011682016040523d82523d6000602084013e613488565b606091505b50509050806109f15760405162461bcd60e51b815260206004820152600360248201526253544560e81b604482015260640161028e565b6000806000806000604051806060016040528087600001516001600160a01b0316815260200187602001516001600160a01b03168152602001876040015162ffffff1681525090506135317f0000000000000000000000000000000000000000000000000000000000000000826131d3565b915061355c604051806040016040528060088152602001672626903837b7b61d60c11b815250613aa5565b61356582614047565b613588604051806040016040528060028152602001612d2d60f01b815250613aa5565b6000826001600160a01b0316633850c7bd6040518163ffffffff1660e01b815260040160e060405180830381865afa1580156135c8573d6000803e3d6000fd5b505050506040513d601f19601f820116820180604052508101906135ec919061522e565b505050505050905061361760405180604001604052806002815260200161212160f01b815250613aa5565b6000613626886080015161408f565b905060006136378960a0015161408f565b905061365c604051806040016040528060028152602001613f3f60f01b815250613aa5565b6136718383838c60c001518d60e001516143b2565b9750505050816001600160a01b0316633c8a7d8d876060015188608001518960a00151896040518060400160405280888152602001336001600160a01b03168152506040516020016136fe9190815180516001600160a01b03908116835260208083015182168185015260409283015162ffffff1692840192909252920151909116606082015260800190565b6040516020818303038152906040526040518663ffffffff1660e01b815260040161372d9594939291906155cb565b60408051808303816000875af115801561374b573d6000803e3d6000fd5b505050506040513d601f19601f8201168201806040525081019061376f91906150c2565b6040805180820190915260028152613f3f60f01b6020820152919550935061379690613aa5565b85610100015184101580156137b057508561012001518310155b6137f35760405162461bcd60e51b8152602060048201526014602482015273507269636520736c69707061676520636865636b60601b604482015260640161028e565b509193509193565b826001600160a01b031661380e8261196d565b6001600160a01b0316146138765760405162461bcd60e51b815260206004820152602960248201527f4552433732313a207472616e73666572206f6620746f6b656e2074686174206960448201526839903737ba1037bbb760b91b606482015260840161028e565b6001600160a01b0382166138d85760405162461bcd60e51b8152602060048201526024808201527f4552433732313a207472616e7366657220746f20746865207a65726f206164646044820152637265737360e01b606482015260840161028e565b6138e3838383614476565b6138ee60008261306a565b6001600160a01b038316600090815260036020526040812080546001929061391790849061515e565b90915550506001600160a01b0382166000908152600360205260408120805460019290613945908490615618565b909155505060008181526002602052604080822080546001600160a01b0319166001600160a01b0386811691821790925591518493918716917fddf252ad1be2c89b69c2b068fc378daa952ba7f163c4a11628f55a4df523b3ef91a4505050565b60006139b18261196d565b90506139bf81600084614476565b6139ca60008361306a565b6001600160a01b03811660009081526003602052604081208054600192906139f390849061515e565b909155505060008281526002602052604080822080546001600160a01b0319169055518391906001600160a01b038416907fddf252ad1be2c89b69c2b068fc378daa952ba7f163c4a11628f55a4df523b3ef908390a45050565b6000818152600c6020526040812080546001600160601b03169082613a7183615630565b91906101000a8154816001600160601b0302191690836001600160601b031602179055506001600160601b03169050919050565b613ae881604051602401613ab99190614a25565b60408051601f198184030181529190526020810180516001600160e01b031663104c13eb60e21b17905261452e565b50565b6001600160a01b038216613b415760405162461bcd60e51b815260206004820181905260248201527f4552433732313a206d696e7420746f20746865207a65726f2061646472657373604482015260640161028e565b6000818152600260205260409020546001600160a01b031615613ba65760405162461bcd60e51b815260206004820152601c60248201527f4552433732313a20746f6b656e20616c7265616479206d696e74656400000000604482015260640161028e565b613bb260008383614476565b6001600160a01b0382166000908152600360205260408120805460019290613bdb908490615618565b909155505060008181526002602052604080822080546001600160a01b0319166001600160a01b03861690811790915590518392907fddf252ad1be2c89b69c2b068fc378daa952ba7f163c4a11628f55a4df523b3ef908290a45050565b6001600160a01b0382166000908152600a60205260408120546001600160501b0316908190036107ad57600d8054600160b01b90046001600160501b0316906016613c838361564c565b82546101009290920a6001600160501b038181021990931691831602179091556001600160a01b039485166000908152600a60209081526040808320805469ffffffffffffffffffff19169486169485179055928252600b815290829020855181546001600160a01b031916908816178155908501516001919091018054959092015195166001600160b81b031990941693909317600160a01b62ffffff90951694909402939093179091555090565b613d3e8484846137fb565b613d4a8484848461454f565b61286a5760405162461bcd60e51b815260040161028e90615668565b6000613d7283836131d3565b9050336001600160a01b038216146107ad57600080fd5b7f00000000000000000000000000000000000000000000000000000000000000006001600160a01b0316846001600160a01b0316148015613dca5750804710155b15613edd577f00000000000000000000000000000000000000000000000000000000000000006001600160a01b031663d0e30db0826040518263ffffffff1660e01b81526004016000604051808303818588803b158015613e2a57600080fd5b505af1158015613e3e573d6000803e3d6000fd5b505060405163a9059cbb60e01b81526001600160a01b038681166004830152602482018690527f000000000000000000000000000000000000000000000000000000000000000016935063a9059cbb925060440190506020604051808303816000875af1158015613eb3573d6000803e3d6000fd5b505050506040513d601f19601f82011682018060405250810190613ed791906156ba565b5061286a565b306001600160a01b03841603613efd57613ef8848383613f09565b61286a565b61286a8484848461464d565b604080516001600160a01b038481166024830152604480830185905283518084039091018152606490920183526020820180516001600160e01b031663a9059cbb60e01b1790529151600092839290871691613f6591906155af565b6000604051808303816000865af19150503d8060008114613fa2576040519150601f19603f3d011682016040523d82523d6000602084013e613fa7565b606091505b5091509150818015613fd1575080511580613fd1575080806020019051810190613fd191906156ba565b612a225760405162461bcd60e51b815260206004820152600260248201526114d560f21b604482015260640161028e565b613ae88160405160240161401891815260200190565b60408051601f198184030181529190526020810180516001600160e01b031663f5b1bba960e01b17905261452e565b6040516001600160a01b0382166024820152613ae89060440160408051601f198184030181529190526020810180516001600160e01b031663161765e160e11b17905261452e565b60008060008360020b126140a6578260020b6140ae565b8260020b6000035b9050620d89e88111156140d4576040516315e4079d60e11b815260040160405180910390fd5b6000816001166000036140eb57600160801b6140fd565b6ffffcb933bd6fad37aa2d162d1a5940015b70ffffffffffffffffffffffffffffffffff1690506002821615614131576ffff97272373d413259a46990580e213a0260801c5b6004821615614150576ffff2e50f5f656932ef12357cf3c7fdcc0260801c5b600882161561416f576fffe5caca7e10e4e61c3624eaa0941cd00260801c5b601082161561418e576fffcb9843d60f6159c9db58835c9266440260801c5b60208216156141ad576fff973b41fa98c081472e6896dfb254c00260801c5b60408216156141cc576fff2ea16466c96a3843ec78b326b528610260801c5b60808216156141eb576ffe5dee046a99a2a811c461f1969c30530260801c5b61010082161561420b576ffcbe86c7900a88aedcffc83b479aa3a40260801c5b61020082161561422b576ff987a7253ac413176f2b074cf7815e540260801c5b61040082161561424b576ff3392b0822b70005940c7a398e4b70f30260801c5b61080082161561426b576fe7159475a2c29b7443b29c7fa6e889d90260801c5b61100082161561428b576fd097f3bdfd2022b8845ad8f792aa58250260801c5b6120008216156142ab576fa9f746462d870fdf8a65dc1f90e061e50260801c5b6140008216156142cb576f70d869a156d2a1b890bb3df62baf32f70260801c5b6180008216156142eb576f31be135f97d08fd981231505542fcfa60260801c5b6201000082161561430c576f09aa508b5b7a84e1c677de54f3e99bc90260801c5b6202000082161561432c576e5d6af8dedb81196699c329225ee6040260801c5b6204000082161561434b576d2216e584f5fa1ea926041bedfe980260801c5b62080000821615614368576b048a170391f7dc42444e8fa20260801c5b60008460020b1315614389578060001981614385576143856156d7565b0490505b64010000000081061561439d5760016143a0565b60005b60ff16602082901c0192505050919050565b6000836001600160a01b0316856001600160a01b031611156143d2579293925b846001600160a01b0316866001600160a01b0316116143fd576143f685858561474f565b905061446d565b836001600160a01b0316866001600160a01b0316101561445f57600061442487868661474f565b905060006144338789866147b2565b9050806001600160801b0316826001600160801b0316106144545780614456565b815b9250505061446d565b61446a8585846147b2565b90505b95945050505050565b6001600160a01b0383166144d1576144cc81600880546000838152600960205260408120829055600182018355919091527ff3f7a9fe364faab93b216da50a3214154f22a0a2b415b23a84c8169e8b636ee30155565b6144f4565b816001600160a01b0316836001600160a01b0316146144f4576144f483826147ef565b6001600160a01b03821661450b576109f18161488c565b826001600160a01b0316826001600160a01b0316146109f1576109f1828261493b565b80516a636f6e736f6c652e6c6f67602083016000808483855afa5050505050565b60006001600160a01b0384163b1561464557604051630a85bd0160e11b81526001600160a01b0385169063150b7a02906145939033908990889088906004016156ed565b6020604051808303816000875af19250505080156145ce575060408051601f3d908101601f191682019092526145cb91810190615359565b60015b61462b573d8080156145fc576040519150601f19603f3d011682016040523d82523d6000602084013e614601565b606091505b5080516000036146235760405162461bcd60e51b815260040161028e90615668565b805181602001fd5b6001600160e01b031916630a85bd0160e11b14905061113f565b50600161113f565b604080516001600160a01b0385811660248301528481166044830152606480830185905283518084039091018152608490920183526020820180516001600160e01b03166323b872dd60e01b17905291516000928392908816916146b191906155af565b6000604051808303816000865af19150503d80600081146146ee576040519150601f19603f3d011682016040523d82523d6000602084013e6146f3565b606091505b509150915081801561471d57508051158061471d57508080602001905181019061471d91906156ba565b6126d85760405162461bcd60e51b815260206004820152600360248201526229aa2360e91b604482015260640161028e565b6000826001600160a01b0316846001600160a01b0316111561476f579192915b6000614792856001600160a01b0316856001600160a01b0316600160601b61336a565b905061446d6147ad84838888036001600160a01b031661336a565b61497f565b6000826001600160a01b0316846001600160a01b031611156147d2579192915b61113f6147ad83600160601b8787036001600160a01b031661336a565b600060016147fc846119e4565b614806919061515e565b600083815260076020526040902054909150808214614859576001600160a01b03841660009081526006602090815260408083208584528252808320548484528184208190558352600790915290208190555b5060009182526007602090815260408084208490556001600160a01b039094168352600681528383209183525290812055565b60085460009061489e9060019061515e565b600083815260096020526040812054600880549394509092849081106148c6576148c661532a565b9060005260206000200154905080600883815481106148e7576148e761532a565b600091825260208083209091019290925582815260099091526040808220849055858252812055600880548061491f5761491f615720565b6001900381819060005260206000200160009055905550505050565b6000614946836119e4565b6001600160a01b039093166000908152600660209081526040808320868452825280832085905593825260079052919091209190915550565b806001600160801b038116811461499557600080fd5b919050565b6001600160e01b031981168114613ae857600080fd5b6000602082840312156149c257600080fd5b81356133638161499a565b60005b838110156149e85781810151838201526020016149d0565b8381111561286a5750506000910152565b60008151808452614a118160208601602086016149cd565b601f01601f19169290920160200192915050565b60208152600061336360208301846149f9565b600060208284031215614a4a57600080fd5b5035919050565b6001600160a01b0381168114613ae857600080fd5b60008060408385031215614a7957600080fd5b8235614a8481614a51565b946020939093013593505050565b600060a08284031215614aa457600080fd5b50919050565b803562ffffff8116811461499557600080fd5b60008060008060808587031215614ad357600080fd5b8435614ade81614a51565b93506020850135614aee81614a51565b9250614afc60408601614aaa565b91506060850135614b0c81614a51565b939692955090935050565b600060c08284031215614aa457600080fd5b600080600060608486031215614b3e57600080fd5b8335614b4981614a51565b92506020840135614b5981614a51565b929592945050506040919091013590565b60ff81168114613ae857600080fd5b60008060008060008060c08789031215614b9257600080fd5b8635614b9d81614a51565b955060208701359450604087013593506060870135614bbb81614b6a565b9598949750929560808101359460a0909101359350915050565b60008060408385031215614be857600080fd5b823591506020830135614bfa81614a51565b809150509250929050565b600060208284031215614c1757600080fd5b813561336381614a51565b60006101608284031215614aa457600080fd5b6001600160601b038d1681526001600160a01b038c811660208301528b811660408301528a16606082015262ffffff89166080820152600288810b60a083015287900b60c082015261018081016001600160801b03871660e08301528561010083015284610120830152614cb56101408301856001600160801b03169052565b6001600160801b0383166101608301529d9c50505050505050505050505050565b8015158114613ae857600080fd5b60008060408385031215614cf757600080fd5b8235614d0281614a51565b91506020830135614bfa81614cd6565b60008060208385031215614d2557600080fd5b823567ffffffffffffffff80821115614d3d57600080fd5b818501915085601f830112614d5157600080fd5b813581811115614d6057600080fd5b8660208260051b8501011115614d7557600080fd5b60209290920196919550909350505050565b6000602080830181845280855180835260408601915060408160051b870101925083870160005b82811015614ddc57603f19888603018452614dca8583516149f9565b94509285019290850190600101614dae565b5092979650505050505050565b634e487b7160e01b600052604160045260246000fd5b604051601f8201601f1916810167ffffffffffffffff81118282101715614e2857614e28614de9565b604052919050565b600067ffffffffffffffff821115614e4a57614e4a614de9565b50601f01601f191660200190565b60008060008060808587031215614e6e57600080fd5b8435614e7981614a51565b93506020850135614e8981614a51565b925060408501359150606085013567ffffffffffffffff811115614eac57600080fd5b8501601f81018713614ebd57600080fd5b8035614ed0614ecb82614e30565b614dff565b818152886020838501011115614ee557600080fd5b8160208401602083013760006020838301015280935050505092959194509250565b60008060008060608587031215614f1d57600080fd5b8435935060208501359250604085013567ffffffffffffffff80821115614f4357600080fd5b818701915087601f830112614f5757600080fd5b813581811115614f6657600080fd5b886020828501011115614f7857600080fd5b95989497505060200194505050565b600080600060608486031215614f9c57600080fd5b8335614fa781614a51565b9250602084013591506040840135614fbe81614a51565b809150509250925092565b60008060408385031215614fdc57600080fd5b8235614fe781614a51565b91506020830135614bfa81614a51565b600060808284031215614aa457600080fd5b600181811c9082168061501d57607f821691505b602082108103614aa457634e487b7160e01b600052602260045260246000fd5b6020808252600c908201526b139bdd08185c1c1c9bdd995960a21b604082015260600190565b602080825260139082015272151c985b9cd858dd1a5bdb881d1bdbc81bdb19606a1b604082015260600190565b6001600160801b0381168114613ae857600080fd5b6000602082840312156150b757600080fd5b813561336381615090565b600080604083850312156150d557600080fd5b505080516020909101519092909150565b600080600080600060a086880312156150fe57600080fd5b855161510981615090565b809550506020860151935060408601519250606086015161512981615090565b608087015190925061513a81615090565b809150509295509295909350565b634e487b7160e01b600052601160045260246000fd5b60008282101561517057615170615148565b500390565b60006001600160801b0380831681851680830382111561519757615197615148565b01949350505050565b60006001600160801b03838116908316818110156151c0576151c0615148565b039392505050565b6001600160a01b03938416815291909216602082015262ffffff909116604082015260600190565b60006020828403121561520257600080fd5b815161336381614a51565b8060020b8114613ae857600080fd5b805161ffff8116811461499557600080fd5b600080600080600080600060e0888a03121561524957600080fd5b875161525481614a51565b60208901519097506152658161520d565b95506152736040890161521c565b94506152816060890161521c565b935061528f6080890161521c565b925060a088015161529f81614b6a565b60c08901519092506152b081614cd6565b8091505092959891949750929550565b60208082526031908201527f4552433732313a207472616e736665722063616c6c6572206973206e6f74206f6040820152701ddb995c881b9bdc88185c1c1c9bdd9959607a1b606082015260800190565b60006020828403121561532357600080fd5b5051919050565b634e487b7160e01b600052603260045260246000fd5b82815260406020820152600061113f60408301846149f9565b60006020828403121561536b57600080fd5b81516133638161499a565b60006020828403121561538857600080fd5b61336382614aaa565b6000602082840312156153a357600080fd5b81356133638161520d565b60006001600160b01b038281166002600160b01b031981016153d2576153d2615148565b6001019392505050565b6000808335601e198436030181126153f357600080fd5b83018035915067ffffffffffffffff82111561540e57600080fd5b60200191503681900382131561542357600080fd5b9250929050565b8183823760009101908152919050565b60006020828403121561544c57600080fd5b815167ffffffffffffffff81111561546357600080fd5b8201601f8101841361547457600080fd5b8051615482614ecb82614e30565b81815285602083850101111561549757600080fd5b61446d8260208301602086016149cd565b6000600182016154ba576154ba615148565b5060010190565b600081830360808112156154d457600080fd5b6040516040810167ffffffffffffffff82821081831117156154f8576154f8614de9565b81604052606084121561550a57600080fd5b60a083019350818410818511171561552457615524614de9565b50826040528435925061553683614a51565b91825260208401359161554883614a51565b82606083015261555a60408601614aaa565b608083015281526060840135915061557182614a51565b60208101919091529392505050565b6000806040838503121561559357600080fd5b825161559e81615090565b6020840151909250614bfa81615090565b600082516155c18184602087016149cd565b9190910192915050565b60018060a01b03861681528460020b60208201528360020b60408201526001600160801b038316606082015260a06080820152600061560d60a08301846149f9565b979650505050505050565b6000821982111561562b5761562b615148565b500190565b60006001600160601b038083168181036153d2576153d2615148565b60006001600160501b038083168181036153d2576153d2615148565b60208082526032908201527f4552433732313a207472616e7366657220746f206e6f6e20455243373231526560408201527131b2b4bb32b91034b6b83632b6b2b73a32b960711b606082015260800190565b6000602082840312156156cc57600080fd5b815161336381614cd6565b634e487b7160e01b600052601260045260246000fd5b6001600160a01b038581168252841660208201526040810183905260806060820181905260009061446a908301846149f9565b634e487b7160e01b600052603160045260246000fdfea2646970667358221220ebc927d3d5f601a7485676b1f50097fd56e08c5b174e5f39f0587b0be30b575e64736f6c634300080f0033",
    "linkReferences": {}
  },
  "methodIdentifiers": {
    "DOMAIN_SEPARATOR()": "3644e515",
    "PERMIT_TYPEHASH()": "30adf81f",
    "WETH9()": "4aa4a4fc",
    "approve(address,uint256)": "095ea7b3",
    "balanceOf(address)": "70a08231",
    "baseURI()": "6c0360eb",
    "burn(uint256)": "42966c68",
    "collect((uint256,address,uint128,uint128))": "fc6f7865",
    "createAndInitializePoolIfNecessary(address,address,uint24,uint160)": "13ead562",
    "decreaseLiquidity((uint256,uint128,uint256,uint256,uint256))": "0c49ccbe",
    "factory()": "c45a0155",
    "getApproved(uint256)": "081812fc",
    "increaseLiquidity((uint256,uint256,uint256,uint256,uint256,uint256))": "219f5d17",
    "isApprovedForAll(address,address)": "e985e9c5",
    "mint((address,address,uint24,int24,int24,uint256,uint256,uint256,uint256,address,uint256))": "88316456",
    "multicall(bytes[])": "ac9650d8",
    "name()": "06fdde03",
    "ownerOf(uint256)": "6352211e",
    "permit(address,uint256,uint256,uint8,bytes32,bytes32)": "7ac2ff7b",
    "positions(uint256)": "99fbab88",
    "refundETH()": "12210e8a",
    "safeTransferFrom(address,address,uint256)": "42842e0e",
    "safeTransferFrom(address,address,uint256,bytes)": "b88d4fde",
    "selfPermit(address,uint256,uint256,uint8,bytes32,bytes32)": "f3995c67",
    "selfPermitAllowed(address,uint256,uint256,uint8,bytes32,bytes32)": "4659a494",
    "selfPermitAllowedIfNecessary(address,uint256,uint256,uint8,bytes32,bytes32)": "a4a78f0c",
    "selfPermitIfNecessary(address,uint256,uint256,uint8,bytes32,bytes32)": "c2e3140a",
    "setApprovalForAll(address,bool)": "a22cb465",
    "supportsInterface(bytes4)": "01ffc9a7",
    "sweepToken(address,uint256,address)": "df2ab5bb",
    "symbol()": "95d89b41",
    "tokenByIndex(uint256)": "4f6ccce7",
    "tokenOfOwnerByIndex(address,uint256)": "2f745c59",
    "tokenURI(uint256)": "c87b56dd",
    "totalSupply()": "18160ddd",
    "transferFrom(address,address,uint256)": "23b872dd",
    "uniswapV3MintCallback(uint256,uint256,bytes)": "d3487997",
    "unwrapWETH9(uint256,address)": "49404b7c"
  },
  "id": 28
}